:020000040000FA
:100000003AEF1EF0C96E120099EF1AF06EEC19F07B
:10001000BDEC0AF0FDD712008CEF1CF0D9CFE5FF44
:10002000E1CFD9FF00C0E5FF01C0E5FF02C0E5FF59
:1000300003C0E5FF04C0E5FF05C0E5FF06C0E5FF1E
:1000400007C0E5FF08C0E5FF09C0E5FF0AC0E5FFFE
:100050000BC0E5FF0CC0E5FF0DC0E5FF0EC0E5FFDE
:100060000FC0E5FF10C0E5FF11C0E5FF12C0E5FFBE
:1000700013C0E5FF14C0E5FF15C0E5FF16C0E5FF9E
:1000800017C0E5FF18C0E5FF19C0E5FF1AC0E5FF7E
:100090001BC0E5FF1CC0E5FF1DC0E5FF1EC0E5FF5E
:1000A000020EDBCF00F0030EDBCF01F0040EDBCF3E
:1000B00002F0050EDBCF03F0060EDBCF04F0070ED7
:1000C000DBCF05F0080EDBCF06F0090EDBCF07F023
:1000D0000A0EDBCF08F0096A0A6A02C00DF00D5063
:1000E000800A0DE102500F01376F0150366F00504A
:1000F000356F0F0E016E350E006E800E026E03C05E
:10010000E9FF04C0F3FF055097EC1EF00B6E0B5097
:10011000D8B4C4EF03F00B50250A02E0ABEF03F0B4
:100120000C6A0D6A0E6A0F6A106A0A0E116E126A64
:10013000136A146A200E156E1668176A2B0E186E55
:10014000032A02E3044A052A03C0E9FF04C0F3FFBF
:10015000055097EC1EF0196E250A13E11950E56E53
:100160000250E56E0150E56E0050E56E78EC13F03C
:10017000040EE126094A0A2A032A02E3044A052A50
:10018000BED71950300A06E1300E156E032A02E37D
:10019000044A052A03C0E9FF04C0F3FF055097ECA9
:1001A0001EF02D0A06E1010E146E032A02E3044A32
:1001B000052A03C0E9FF04C0F3FF055097EC1EF0C9
:1001C000200A08E1010E176E200E186E032A02E3C2
:1001D000044A052A03C0E9FF04C0F3FF055097EC69
:1001E0001EF02B0A06E1010E176E032A02E3044AF1
:1001F000052A03C0E9FF04C0F3FF055097EC1EF089
:10020000196E310E195C2BE33A0E195C28E203C01B
:1002100019F004C01AF005C01BF019C0E9FF1AC09C
:10022000F3FF1B5097EC1EF01C6E300E1C5C11E3AC
:100230003A0E1C5C0EE213500A0DF3CF1DF01C5059
:100240001D26D00E1D24136E192A02E31A4A1B2AFA
:10025000E4D719C003F01AC004F01BC005F003C0B6
:10026000E9FF04C0F3FF055097EC1EF02E0A2DE1C4
:10027000032A02E3044A052A166A03C019F004C0DF
:100280001AF005C01BF019C0E9FF1AC0F3FF1B509C
:1002900097EC1EF01C6E300E1C5C11E33A0E1C5CD9
:1002A0000EE216500A0DF3CF1DF01C501D26D00E85
:1002B0001D24166E192A02E31A4A1B2AE4D719C014
:1002C00003F01AC004F01BC005F003C0E9FF04C02E
:1002D000F3FF055097EC1EF0196E6C0A07E1010E52
:1002E0000C6E032A02E3044A052A09D01950680A51
:1002F00006E1010E0E6E032A02E3044A052A03C03A
:10030000E9FF04C0F3FF055097EC1EF0750A06E103
:10031000010E106E032A02E3044A052A03C0E9FF16
:1003200004C0F3FF055097EC1EF0196E730A05E147
:10033000010E0D6E200E156E3FD01950780A03E1A4
:10034000100E116E39D01950580A05E1100E116EB9
:10035000010E126E31D01950630A02E1116A2CD0DD
:1003600019506F0A03E1080E116E26D01950660A63
:1003700003E1010E0F6E20D01950640A1DE01950E0
:10038000690A1AE0105005E0FF0E03260422052238
:1003900013D01950E56E0250E56E0150E56E005025
:1003A000E56E78EC13F0040EE126094A0A2A032AC6
:1003B00002E3044A052AA3D60D5021E00650030F9C
:1003C0000D6E000E0720196E000E08201A6E0DC06B
:1003D00006F019C007F01AC008F0FD0E0D26FF0E3A
:1003E00019221A220DC0E9FF19C0F3FF1A504FEC71
:1003F0001DF00D6EF3CF19F0F4CF1AF0FDD00F50B1
:100400000DE0000E1A6E080E196E100E0D6E040E21
:100410000626000E072208221668EED016680C5039
:1004200023E00650040F0C6E000E07200F6E000E26
:1004300008201B6E0CC006F00FC007F01BC008F0B0
:10044000FC0E0C26FF0E0F221B220CC0E9FF0FC072
:10045000F3FF1B50D5EC1CF00C6EF3CF0FF0F4CF74
:100460001BF0E9CF1CF067D00E502FE00650020FB2
:100470000E6E000E07201D6E000E08201E6E0EC0B0
:1004800006F01DC007F01EC008F0FE0E0E26FF0E7F
:100490001D221E220EC0E9FF1DC0F3FF1E500EECF0
:1004A0001EF00E6E0EC00CF00F6A1B6A1C6A115013
:1004B0000A0A03E11050D8B43ED00C500E6E0EC0A4
:1004C0000CF00F6A1B6A1C6A36D00650020F0E6EC3
:1004D000000E07201D6E000E08201E6E0EC006F0D6
:1004E0001DC007F01EC008F0FE0E0E26FF0E1D22D6
:1004F0001E220EC0E9FF1DC0F3FF1E500EEC1EF0C1
:100500000E6EF3CF1DF00EC00CF01DC00FF0E86AA8
:100510001DBEFF0E1B6E1C6E11500A0A02E1105028
:100520000AE00C500E6E0F501D6E0EC00CF01DC078
:100530000FF01B6A1C6A040E196E240E0D6E800EDD
:100540001A6E1150D8B440D0105013E01150E56E1F
:10055000040EE56E240EE56E1C50E56E1B50E56E34
:100560000F50E56E0C50E56EAAEC0BF0070EE1267D
:1005700012D01150E56E040EE56E240EE56E1C508F
:10058000E56E1B50E56E0F50E56E0C50E56EA8EC65
:1005900016F0070EE12617502FE00DC0E9FF19C035
:1005A000F3FF1A5097EC1EF02D0A26E0FF0E0D26E1
:1005B00019221A2218C0E5FF0DC0E9FF19C0F3FF88
:1005C0001A5013EC1FF018D00CC0E5FF0DC0E9FF66
:1005D00019C0F3FF1A5013EC1FF00D50010F0C6EF1
:1005E000000E19200E6E000E1A20E56A0CC0E9FFFD
:1005F0000EC0F3FF13EC1FF00DC00CF019C00EF08D
:100600001AC00FF013C010F0105010E00CC0E9FF3A
:100610000EC0F3FF0F5097EC1EF0176E175006E058
:100620000C2A02E30E4A0F2A1006EED710C013F070
:1006300014501EE109C00CF00AC00EF010C00FF0FB
:100640000F5010E01550E56E0250E56E0150E56E5A
:100650000050E56E78EC13F0040EE1260C4A0E2AE9
:100660000F06EED70CC009F00EC00AF00FC013F051
:1006700016C00CF00DC00DF019C00EF01AC00FF02E
:1006800009C010F00AC015F00DC0E9FF0EC0F3FF5D
:100690000F5097EC1EF0166E1650D8B43ED00CC01A
:1006A00016F0176A161E171E1650171005E00CC01C
:1006B00016F00C06165031E00DC0E9FF0EC0F3FF36
:1006C0000F5097EC1EF0116E125010E01150E56EB5
:1006D000CBEC1DF0166EE652165004E0DF0E11143E
:1006E000166E02D011C016F016C011F01150E56E52
:1006F0000250E56E0150E56E0050E56E78EC13F0A7
:10070000040EE1260D2A02E30E4A0F2A104A152A8A
:100710001350D8B4B9D71306B7D710C009F015C015
:100720000AF014502BE010C00CF015C00DF013C0EF
:100730000EF00E501FE0200EE56E0250E56E0150E7
:10074000E56E0050E56E78EC13F0040EE1260C4ADD
:100750000D2A0E06EED70B50E56E0250E56E0150E5
:10076000E56E0050E56E78EC13F0040EE126094AC0
:100770000A2A04D00CC009F00DC00AF0032A02E3D3
:10078000044A052A7FEF00F00AC0F3FF0950E4CFC6
:100790001EF0E4CF1DF0E4CF1CF0E4CF1BF0E4CF5B
:1007A0001AF0E4CF19F0E4CF18F0E4CF17F0E4CF5B
:1007B00016F0E4CF15F0E4CF14F0E4CF13F0E4CF5B
:1007C00012F0E4CF11F0E4CF10F0E4CF0FF0E4CF5B
:1007D0000EF0E4CF0DF0E4CF0CF0E4CF0BF0E4CF5B
:1007E0000AF0E4CF09F0E4CF08F0E4CF07F0E4CF5B
:1007F00006F0E4CF05F0E4CF04F0E4CF03F0E4CF5B
:1008000002F0E4CF01F0E4CF00F0E4CFD9FF120012
:100810003C4E4F20464C4F41543E0000D9CFE5FF9F
:10082000E1CFD9FF00C0E5FF01C0E5FF02C0E5FF51
:1008300003C0E5FF04C0E5FF05C0E5FF06C0E5FF16
:1008400007C0E5FF08C0E5FF09C0E5FF0AC0E5FFF6
:100850000BC0E5FF0CC0E5FF0DC0E5FF0EC0E5FFD6
:100860000FC0E5FF10C0E5FF11C0E5FF12C0E5FFB6
:1008700013C0E5FF14C0E5FF15C0E5FF16C0E5FF96
:1008800017C0E5FF18C0E5FF020EDBCF00F00050F7
:100890001C0DF450026EF3CF01F0000E0126050E80
:1008A00002220150080F036E000E0220046E015058
:1008B000090F056E000E0220066E05C0E9FF06C096
:1008C000EAFFEECF07F0EECF08F0EECF09F0EFCF62
:1008D0000AF003C0E9FF04C0EAFFEFCF0BF00B50B2
:1008E000E96E07C00BF008C00CF009C00DF00AC09B
:1008F0000EF0E9500AE0E86CD8900EBED8800E32B7
:100900000D320C320B32010FF8E30B50075E0C5026
:10091000085A0D50095A0E500A5A16EC1CF0F3CF23
:100920000CF00D6A0E6A07260C5008220D500922A1
:100930000E500A22072A800E0822FF0E09220A22E0
:1009400005C0E9FF06C0EAFF07C0EEFF08C0EEFFE2
:1009500009C0EEFF0AC0EFFF01500D0F056E000E3B
:100960000220066E01500E0F0B6E000E02200C6E60
:100970000BC0E9FF0CC0EAFFEECF0DF0EECF0EF09A
:10098000EECF0FF0EFCF10F005C0E9FF06C0EAFF91
:10099000EFCF11F01150E96E0DC011F00EC012F042
:1009A0000FC013F010C014F0E9500AE0E86CD890C2
:1009B00014BED8801432133212321132010FF8E310
:1009C00011500D5E12500E5A13500F5A1450105AF7
:1009D00003C0E9FF04C0EAFFEFCF03F003500AE0D1
:1009E000E86CD8900ABED8800A3209320832073241
:1009F000010FF8E307500D2608500E2209500F2270
:100A00000A5010220BC0E9FF0CC0EAFF0DC0EEFF38
:100A10000EC0EEFF0FC0EEFF10C0EFFF0150120F2F
:100A2000036E000E0220046E0150130F076E000EBD
:100A30000220086E07C0E9FF08C0EAFFEECF09F008
:100A4000EECF0AF0EECF0DF0EFCF0EF003C0E9FFCE
:100A500004C0EAFFEFCF0FF00F50E96E09C00FF0AE
:100A60000AC010F00DC011F00EC012F0E9500AE0FB
:100A7000E86CD89012BED8801232113210320F3288
:100A8000010FF8E30F50095E10500A5A11500D5A29
:100A900012500E5A16EC1CF0F3CF10F0116A126AC5
:100AA000092610500A2211500D2212500E22092A36
:100AB000800E0A22FF0E0D220E2207C0E9FF08C099
:100AC000EAFF09C0EEFF0AC0EEFF0DC0EEFF0EC048
:100AD000EFFF0150170F076E000E0220086E015045
:100AE000180F0F6E000E0220106E0FC0E9FF10C02D
:100AF000EAFFEECF11F0EECF12F0EECF13F0EFCF12
:100B000014F007C0E9FF08C0EAFFEFCF15F0155059
:100B1000E96E11C015F012C016F013C017F014C022
:100B200018F0E9500AE0E86CD89018BED880183266
:100B3000173216321532010FF8E31550115E1650B8
:100B4000125A1750135A1850145A03C0E9FF04C020
:100B5000EAFFEFCF03F003500AE0E86CD8900EBE36
:100B6000D8800E320D320A320932010FF8E30950F3
:100B700011260A5012220D5013220E5014220FC0BB
:100B8000E9FF10C0EAFF11C0EEFF12C0EEFF13C074
:100B9000EEFF14C0EFFF0BC0E9FF0CC0EAFFEECF81
:100BA0000BF0EECF0CF0EECF03F0EFCF04F005C06A
:100BB000E9FF06C0EAFFEFCF05F005500AE0E86C58
:100BC000D89004BED880043203320C320B32010FAD
:100BD000F8E30150040F056E000E0220066E05C0FA
:100BE000E9FF06C0EAFFEECF05F0EFCF06F0E86AB6
:100BF00006BEFF0E096EE56E0950E56E0650E56E05
:100C00000550E56E0450E56E0350E56E0C50E56E40
:100C10000B50E56EB3EC09F0F3CF04F0F4CF05F020
:100C2000E9CF06F0080EE1260450036E0550046E6D
:100C3000F00E0316033A043A0414041A032604328D
:100C400003320650E838E840F80B04120638E84052
:100C5000070B07C0E9FF08C0EAFFEFCF07F0075016
:100C60000AE0E86CD89014BED880143213321232E5
:100C70001132010FF8E30150060F076E000E02203B
:100C8000086E07C0E9FF08C0EAFFEECF07F0EFCF1C
:100C900008F0E86A08BEFF0E096EE56E0950E56EC1
:100CA0000850E56E0750E56E1450E56E1350E56E82
:100CB0001250E56E1150E56EB3EC09F0F3CF08F079
:100CC000F4CF09F0E9CF0AF0080EE1260850076ECC
:100CD0000950086EF00E0716073A083A0814081A69
:100CE0000726083207320A50E838E840F80B0812A5
:100CF0000A38E840070B0750032608500422015029
:100D0000020F056E000E0220066E05C0E9FF06C048
:100D1000EAFFEECF05F0EFCF06F0055003260650B0
:100D2000042201C0E9FF02C0EAFF03C0EEFF04C0D5
:100D3000EFFF04340430026E0330016E02340232DD
:100D40000132D88002AED89002E3016A026A0250F2
:100D5000800F7F0F02E1000E015C01E30168036A6E
:100D60001E0E0026D8B0032A0150E56E0350E56E32
:100D70000050E56EEDEC1BF0030EE126E4CF18F019
:100D8000E4CF17F0E4CF16F0E4CF15F0E4CF14F081
:100D9000E4CF13F0E4CF12F0E4CF11F0E4CF10F081
:100DA000E4CF0FF0E4CF0EF0E4CF0DF0E4CF0CF081
:100DB000E4CF0BF0E4CF0AF0E4CF09F0E4CF08F081
:100DC000E4CF07F0E4CF06F0E4CF05F0E4CF04F081
:100DD000E4CF03F0E4CF02F0E4CF01F0E4CF00F081
:100DE000E4CFD9FF1200D9CFE5FFE1CFD9FF00C092
:100DF000E5FF01C0E5FF02C0E5FF03C0E5FF04C059
:100E0000E5FF05C0E5FF06C0E5FF07C0E5FF08C038
:100E1000E5FF09C0E5FF0AC0E5FF0BC0E5FF0CC018
:100E2000E5FF0DC0E5FF0EC0E5FF0FC0E5FF10C0F8
:100E3000E5FF11C0E5FF12C0E5FF13C0E5FF14C0D8
:100E4000E5FF020EDBCF00F000500C0DF450026EF7
:100E5000F3CF01F0A80E0126050E02220150020F69
:100E6000036E000E0220046E0150030F056E000E8B
:100E70000220066E05C0E9FF06C0EAFFEECF07F0CC
:100E8000EECF08F0EECF09F0EFCF0AF003C0E9FF94
:100E900004C0EAFFEFCF0BF00B50E96E07C00BF078
:100EA00008C00CF009C00DF00AC00EF0E9500AE0CD
:100EB000E86CD8900EBED8800E320D320C320B3258
:100EC000010FF8E30B50075E0C50085A0D50095AF9
:100ED0000E500A5A16EC1CF0F3CF0CF00D6A0E6A95
:100EE00007260C5008220D5009220E500A22072A0C
:100EF000800E0822FF0E09220A2205C0E9FF06C063
:100F0000EAFF07C0EEFF08C0EEFF09C0EEFF0AC00F
:100F1000EFFF0150070F056E000E0220066E015014
:100F2000080F0B6E000E02200C6E0BC0E9FF0CC008
:100F3000EAFFEECF0DF0EECF0EF0EECF0FF0EFCFD9
:100F400010F005C0E9FF06C0EAFFEFCF11F0115025
:100F5000E96E0DC011F00EC012F00FC013F010C0FA
:100F600014F0E9500AE0E86CD89014BED88014322E
:100F7000133212321132010FF8E311500D5E12508C
:100F80000E5A13500F5A1450105A03C0E9FF04C0F0
:100F9000EAFFEFCF03F003500AE0E86CD8900ABEF6
:100FA000D8800A32093208320732010FF8E30750BD
:100FB0000D2608500E2209500F220A5010220BC095
:100FC000E9FF0CC0EAFF0DC0EEFF0EC0EEFF0FC040
:100FD000EEFF10C0EFFF05C0E9FF06C0EAFFEFCF4C
:100FE00005F005500AE0E86CD89010BED8801032A9
:100FF0000F320E320D32010FF8E339C403F03AC458
:1010000004F0E86A04013ABFFF0E056EE56E055074
:10101000E56E0450E56E0350E56E1050E56E0F501E
:10102000E56E0E50E56E0D50E56EB3EC09F0F3CFB2
:1010300004F0F4CF05F0E9CF06F0080EE1260450E5
:10104000036E0550046EF00E0316033A043A0414BE
:10105000041A0326043203320650E838E840F80B3D
:1010600004120638E840070B020E042601C0E9FF0F
:1010700002C0EAFF03C0EEFF04C0EFFF04340430F7
:10108000026E0330016E0234023201320250800FD0
:10109000800F02E1010E015C03E2010E016E026AA3
:1010A0000250800F7F0F02E1000E015C01E3016836
:1010B000036A180E0026D8B0032A0150E56E0350CB
:1010C000E56E0050E56EEDEC1BF0030EE126E4CF7B
:1010D00014F0E4CF13F0E4CF12F0E4CF11F0E4CF3A
:1010E00010F0E4CF0FF0E4CF0EF0E4CF0DF0E4CF3A
:1010F0000CF0E4CF0BF0E4CF0AF0E4CF09F0E4CF3A
:1011000008F0E4CF07F0E4CF06F0E4CF05F0E4CF39
:1011100004F0E4CF03F0E4CF02F0E4CF01F0E4CF39
:1011200000F0E4CFD9FF120000C0E5FF01C0E5FFE9
:1011300002C0E5FF03C0E5FF0501F651D8B40AD1AE
:101140009DA81DD09EA81BD004014C510401491933
:1011500005E1D4EC1EF00401496BFCD0000E040143
:101160004C25006E016A040E012200C0E9FF01C097
:10117000EAFFEFCF45F44C2B45C4ADFFEBD09EAA60
:10118000E9D0ABA205D004014A81D4EC1EF0E2D034
:10119000ABA405D004014A83D4EC1EF0DBD0ABA095
:1011A00048D0AECF45F4F7C500F0016A008E45C4C3
:1011B00002F0036A0250001803E10350011801E035
:1011C00004D004014A89AB96C5D00401455104E01E
:1011D00045510501F71929E104014A99AB9604012B
:1011E000455103E004014A9702D004014A8745C4EF
:1011F0004EF447C44FF404014751006E000404014B
:10120000506F600E04014F25006E016A000E01222E
:1012100000C0E9FF01C0EAFF45C4EFFF4F2B4F516B
:10122000800A02E104014F6B95D004014A99AB8614
:1012300091D0AECF45F404014AA921D0F7C500F002
:10124000016A008E45C402F0036A0250001803E1EF
:101250000350011801E011D094909D9AAB980401BD
:10126000495104E1AD6AD4EC1EF007D000C4ADFFD3
:10127000010E04014C6F9D886DD0AB866BD00401CC
:10128000455104014E2704014F51040150191BE13F
:1012900004014E510CE14FC447F404014AB712D087
:1012A00094909D9AAB98AD6AD4EC1EF00BD00401DB
:1012B0004A854AB707D094909D9AAB98010EAD6EBF
:1012C000D4EC1EF047D004014F510401481908E145
:1012D000040148510401471903E0D4EC1EF03AD050
:1012E00047C400F0016A004A012AE56A800EE56EF3
:1012F0000150E56E0050E56EFAEC14F0006E040E3D
:10130000E12600500401466F04014F190FE145C466
:1013100000F01F0E00140401506F006E020E002436
:10132000506F0401475104015027509F4FC400F0F3
:1013300004014F2B016A600E0026000E012200C03E
:10134000E9FF01C0EAFF45C4EFFF4F51800A02E107
:1013500004014F6BE4CF03F0E4CF02F0E4CF01F0DF
:10136000E4CF00F01200D9CFE5FFE1CFD9FF00C0F4
:10137000E5FF01C0E5FF02C0E5FF03C0E5FF04C0D3
:10138000E5FF05C0E5FF06C0E5FF07C0E5FF020E6B
:10139000DBCF00F0030EDBCF01F0040EDBCF02F059
:1013A000050EDBCF03F0060EDBCF04F0070EDBCF1C
:1013B00005F0080EDBCF06F0090EDBCF07F000507A
:1013C0000401856F0150866F0250876F0350886F4C
:1013D000045004018A6F05508B6F06508C6F0750C4
:1013E0008D6F0401855104018C03F4CF01F0F3CF1C
:1013F00000F000500401906F0150916F040185517D
:1014000004018A03F4CF01F0F3CF00F0005004018F
:101410008E6F01508F6F0401885104018A03F3CF4E
:1014200000F00401915100260050916F0401875192
:1014300004018B03F3CF01F001500026005004019A
:10144000916F0401875104018A03F4CF01F0F3CFB7
:1014500000F0040190510026915101220050906F3C
:101460000150916F0401865104018B03F4CF03F006
:10147000F3CF02F002500026035001220050040175
:10148000906F0150916F0401865104018C03F3CFDA
:1014900000F000500F01266F0401865104018A03F9
:1014A000F4CF01F0F3CF00F000500F01246F015092
:1014B000256F0401855104018D03F3CF00F0005026
:1014C0000F012A6F0401855104018B03F4CF01F051
:1014D000F3CF00F000500F01286F0150296F0F016A
:1014E000236B0F01276B0F01235104018E25006E22
:1014F0000F01245104018F21016E0F0125510401B8
:101500009021026E0F01265104019121036E0050BB
:101510008E6F01508F6F0250906F0350916F0F01CB
:10152000275104018E25006E0F01285104018F21DF
:10153000016E0F01295104019021026E0F012A5101
:1015400004019121036E03C0E9FF02C0F4FF01C052
:10155000F3FF0050E4CF07F0E4CF06F0E4CF05F04E
:10156000E4CF04F0E4CF03F0E4CF02F0E4CF01F0E5
:10157000E4CF00F0E4CFD9FF120000C0E5FF01C0C6
:10158000E5FF02C0E5FF03C0E5FF04C0E5FF05C0BD
:10159000E5FF06C0E5FF07C0E5FFA4EC10F0AFECE7
:1015A0000EF099EC1BF0006EF3CF01F0F4CF02F0D7
:1015B000E9CF03F004013051005E3151015A32513C
:1015C000025A3351035A039E3F0E035C08E1FF0E9B
:1015D000025C05E1FF0E015C02E1FF0E005CD8B089
:1015E000A8D099EC1BF0F3CF01F0F4CF02F0E9CFD3
:1015F00003F0880F0401306F130E0120316F000ECD
:101600000220326F000E0320336F0501F05124E0F9
:10161000006A016A0050E56E0EEC04F0E652AFEC91
:101620000EF0004A012A0150800F800F02E1060EE1
:10163000005CF0E3006A016A0050E56EF3EC06F02E
:10164000E652AFEC0EF0004A012A0150800F800FE5
:1016500002E1060E005CF0E341C400F00401412BFE
:10166000060E005CD8A065D0416B82A202D08B929E
:1016700001D08B82420E37EC1BF01E0E37EC1BF0B4
:10168000006A016A026A036A000E0224046E050EF3
:101690000320056E04C0E9FF05C0EAFFEECF04F0A9
:1016A000EFCF05F0055037EC1BF0045037EC1BF082
:1016B0001C0E0226D8B0032A004A012A0150800FCE
:1016C000800F02E1060E005CDFE3AFEC0EF0006A73
:1016D000016A026A036AA80E0224066E050E032040
:1016E000076E06C0E9FF07C0EAFFEECF04F0EFCFB8
:1016F00005F0055037EC1BF0045037EC1BF00C0ED6
:101700000226D8B0032A004A012A0150800F800F18
:1017100002E1060E005CDFE3AFEC0EF00401405185
:1017200037EC1BF004013F5137EC1BF00A0E37EC8D
:101730001BF0E4CF07F0E4CF06F0E4CF05F0E4CFF0
:1017400004F0E4CF03F0E4CF02F0E4CF01F0E4CF03
:1017500000F01200D9CFE5FFE1CFD9FF00C0E5FFCF
:1017600001C0E5FF02C0E5FF03C0E5FF04C0E5FFDF
:1017700005C0E5FF06C0E5FF07C0E5FF08C0E5FFBF
:1017800009C0E5FF0AC0E5FF0BC0E5FF0CC0E5FF9F
:101790000DC0E5FF0EC0E5FF0FC0E5FF020EDBCF79
:1017A00000F0030EDBCF01F0040EDBCF02F0050EDC
:1017B000DBCF03F0060EDBCF04F0070EDBCF05F026
:1017C000080EDBCF06F0200E076E086A06C009F08F
:1017D0000A6A0B6A0C6AE56AE56AE56A0950E56E11
:1017E0000350E56E0250E56E0150E56E0050E56E67
:1017F00007EC10F00D6E080EE126300E0D263A0EA5
:101800000D5C05E30D500E6E270E0E240D6EFF0EBF
:1018100007260822E00E07240E6E000E08200F6E29
:101820000EC0E9FF0FC0EAFF0DC0EFFF0C50E56EE0
:101830000B50E56E0A50E56E0950E56E0350E56EFB
:101840000250E56E0150E56E0050E56ECEEC11F0F1
:10185000006EF3CF01F0F4CF02F0E9CF03F0080EF1
:10186000E1260050011002100310D8A4AFD707C022
:1018700000F008C001F004C002F005C003F000C091
:1018800004F001C005F0004A012AE00E0426000E13
:10189000052204C0E9FF05C0EAFFEFCF04F002C053
:1018A000E9FF03C0EAFF04C0EFFF024A032A000E6B
:1018B000015C02E1200E005CE2E302C0E9FF03C02C
:1018C000EAFF000EEF6AE4CF0FF0E4CF0EF0E4CFB2
:1018D0000DF0E4CF0CF0E4CF0BF0E4CF0AF0E4CF4E
:1018E00009F0E4CF08F0E4CF07F0E4CF06F0E4CF4E
:1018F00005F0E4CF04F0E4CF03F0E4CF02F0E4CF4E
:1019000001F0E4CF00F0E4CFD9FF120000C0E5FF02
:1019100001C0E5FF02C0E5FF03C0E5FF04C0E5FF2D
:1019200005C0E5FF06C0E5FF07C0E5FF09C0E5FF0C
:10193000C3EC1BF0006E1E0A16E000501F0A29E0DF
:101940000050250A2BE00050260A35E00050640ABA
:1019500001E144D00050650A01E17CD00050C80A82
:1019600001E184D085D0C3EC1BF0036E026AC3ECA6
:101970001BF0016A022601500322C3EC1BF0E56E46
:101980000350E56E0250E56EEDEC1BF0030EE12610
:101990006FD0C3EC1BF00501F06F6AD0C3EC1BF0F5
:1019A00004013A6F396BC3EC1BF0016A040139275B
:1019B00001503A235DD0C3EC1BF0036E026AC3EC06
:1019C0001BF0016A0226015003220350E56E02500B
:1019D000E56E68EC17F0E652E6524AD0C3EC1BF015
:1019E000006EC3EC1BF0016A026EC3EC1BF0046ACC
:1019F000012604500222C3EC1BF0036A046EC3EC00
:101A00001BF0066A032606500422C3EC1BF0056E89
:101A1000C3EC1BF0066A076EC3EC1BF0096A0626CE
:101A200009500722C3EC1BF0E56E0750E56E065027
:101A3000E56E0550E56E0450E56E0350E56E02500C
:101A4000E56E0150E56E0050E56E4BEC0DF0090EB1
:101A5000E1260ED0C3EC1BF0006E650EE56E005063
:101A6000E56E5CEC0FF0E652E65202D01EEC1FF081
:101A7000E4CF09F0E4CF07F0E4CF06F0E4CF05F0BF
:101A8000E4CF04F0E4CF03F0E4CF02F0E4CF01F0C0
:101A9000E4CF00F01200D9CFE5FFE1CFD9FF00C0BD
:101AA000E5FF01C0E5FF02C0E5FF03C0E5FF04C09C
:101AB000E5FF05C0E5FF06C0E5FF07C0E5FF08C07C
:101AC000E5FF09C0E5FF0AC0E5FF0BC0E5FF020E18
:101AD000DBCF00F0030EDBCF01F0040EDBCF02F012
:101AE000050EDBCF03F0060EDBCF04F0070EDBCFD5
:101AF00005F0080EDBCF06F0090EDBCF07F00A0E6B
:101B0000DBCF08F000501C0DF450096EF3CF00F04D
:101B1000000E0026050E09220050020F0A6E000E6C
:101B200009200B6E0AC0E9FF0BC0EAFF01C0EEFFFF
:101B300002C0EFFF0050040F016E000E0920026E7C
:101B400001C0E9FF02C0EAFF03C0EEFF04C0EFFFDF
:101B50000050080F016E000E0920026E00500D0F9C
:101B6000036E000E0920046E03C0E9FF04C0EAFF03
:101B700005C0EFFF01C0E9FF02C0EAFF05C0EFFFAB
:101B80000050060F016E000E0920026E01C0E9FF31
:101B900002C0EAFF06C0EEFF07C0EFFF0050120FC1
:101BA000016E000E0920026E01C0E9FF02C0EAFFCB
:101BB00008C0EFFF170E0026D8B0092A082A00C077
:101BC000E9FF09C0EAFF08C0EFFFE4CF0BF0E4CF64
:101BD0000AF0E4CF09F0E4CF08F0E4CF07F0E4CF57
:101BE00006F0E4CF05F0E4CF04F0E4CF03F0E4CF57
:101BF00002F0E4CF01F0E4CF00F0E4CFD9FF12000F
:101C0000D9CFE5FFE1CFD9FF00C0E5FF01C0E5FF77
:101C100002C0E5FF03C0E5FF04C0E5FF05C0E5FF26
:101C200006C0E5FF07C0E5FF020EDBCF00F0005065
:101C30001C0DF450016EF3CF00F0000E0026050ECF
:101C400001220050020F026E000E0120036E800E72
:101C5000E56E0350E56E0250E56E11EC18F0030ED0
:101C6000E1260050040F026E000E0120036E800E6C
:101C7000E56E0350E56E0250E56E11EC18F0030EB0
:101C8000E1260050080F026E000E0120036E02C014
:101C900004F003C005F0800EE56E0550E56E0450BB
:101CA000E56E2FEC19F0030EE1260050060F046ECE
:101CB000000E0120056E800EE56E0550E56E0450A5
:101CC000E56E11EC18F0030EE1260050120F046EC1
:101CD000000E0120056E04C006F005C007F0800E5E
:101CE000E56E0750E56E0650E56E2FEC19F0030E19
:101CF000E12600500D0F066E000E0120076E02C097
:101D0000E9FF03C0EAFFEFCF02F006C0E9FF07C01A
:101D1000EAFF02C0EFFF170E0026D8B0012A04C068
:101D2000E9FF05C0EAFFEFCF04F0042A00C0E9FF95
:101D300001C0EAFF04C0EFFFE4CF07F0E4CF06F0F4
:101D4000E4CF05F0E4CF04F0E4CF03F0E4CF02F0F9
:101D5000E4CF01F0E4CF00F0E4CFD9FF120000C0DF
:101D6000E5FF01C0E5FF02C0E5FF03C0E5FF04C0D9
:101D7000E5FF05C0E5FF06C0E5FF07C0E5FF72A26D
:101D80008AD0A4A888D00501F951FD0A0DE1FA51C5
:101D9000FF0A01E009D04EEC1FF0736AFE0E050148
:101DA000F96FFF0EFA6977D00501F951FE0A11E1CA
:101DB000FA51FF0A01E00DD099EC1BF0F3CF01F0CE
:101DC00004013D6F01503E6FFF0E0501F969FA698C
:101DD00062D00501F951FF0A30E1FA51FF0A01E032
:101DE0002CD099EC1BF0006EF3CF01F0F4CF02F091
:101DF000E9CF03F03DC404F03EC405F0E86A0401F5
:101E00003EBFFF0E066E076E0450005E0550015A7D
:101E10000650025A0750035A039E000E035C08E165
:101E2000000E025C05E1000E015C02E1090E005C9F
:101E300032E30501F96BFA6B2ED00501F951FA1165
:101E400008E152EC1FF0736A010E0501F96FFA6B9D
:101E500022D0F9C500F0FAC501F00501F93F01D023
:101E6000FA2B000E0026020E012200C0E9FF01C07D
:101E7000EAFFEFCF73FF0501F9510DE1FA51010AB5
:101E800001E009D0FD0E0501F96FFF0EFA690401AA
:101E90003F3F01D0402BE4CF07F0E4CF06F0E4CF82
:101EA00005F0E4CF04F0E4CF03F0E4CF02F0E4CF98
:101EB00001F0E4CF00F01200D9CFE5FFE1CFD9FF68
:101EC00000C0E5FF01C0E5FF02C0E5FF03C0E5FF7C
:101ED00004C0E5FF05C0E5FF020EDBCF00F0030EF6
:101EE000DBCF01F0420E37EC1BF0015037EC1BF05A
:101EF000005037EC1BF000501C0DF450016EF3CF76
:101F000000F0000E0026050E01220050020F026EA6
:101F1000000E0120036E02C0E9FF03C0EAFFEECF0E
:101F200004F0EFCF05F0055037EC1BF002C0E9FFDD
:101F300003C0EAFFEECF02F0EFCF03F0025037EC20
:101F40001BF00050040F026E000E0120036E02C051
:101F5000E9FF03C0EAFFEECF04F0EFCF05F0055034
:101F600037EC1BF002C0E9FF03C0EAFFEECF02F03E
:101F7000EFCF03F0025037EC1BF00050080F026E59
:101F8000000E0120036E02C0E9FF03C0EAFFEFCF9D
:101F900002F0025037EC1BF00050060F026E000EEC
:101FA0000120036E02C0E9FF03C0EAFFEECF04F098
:101FB000EFCF05F0055037EC1BF002C0E9FF03C07E
:101FC000EAFFEECF02F0EFCF03F0025037EC1BF048
:101FD000120E0026D8B0012A00C0E9FF01C0EAFFB6
:101FE000EFCF00F0005037EC1BF00A0E37EC1BF07F
:101FF000E4CF05F0E4CF04F0E4CF03F0E4CF02F047
:10200000E4CF01F0E4CF00F0E4CFD9FF1200D9CF44
:10201000E5FFE1CFD9FF00C0E5FF01C0E5FF02C049
:10202000E5FF03C0E5FF04C0E5FF05C0E5FF06C00E
:10203000E5FF07C0E5FF08C0E5FF09C0E5FF0AC0EE
:10204000E5FF020EDBCF00F0030EDBCF01F0040E44
:10205000DBCF02F0050EDBCF03F0060EDBCF04F082
:10206000070EDBCF05F0080EDBCF06F0090EDBCF45
:1020700007F0086A045005100610071005E1E9682A
:10208000F468F368E86847D0096A0750800BE844B1
:102090000A6E0A501BE10450042605360636073640
:1020A0000750035C08E10650025C05E10550015C45
:1020B00002E10450005C06E2D89007320632053295
:1020C000043204D0092A09C008F0DFD70750035CA6
:1020D00008E10650025C05E10550015C02E1045094
:1020E000005C08E30450005E0550015A0650025A95
:1020F0000750035AD890073206320532043208C01E
:1021000009F008060950E2E103C0E9FF02C0F4FF4C
:1021100001C0F3FF0050E4CF0AF0E4CF09F0E4CFB0
:1021200008F0E4CF07F0E4CF06F0E4CF05F0E4CF09
:1021300004F0E4CF03F0E4CF02F0E4CF01F0E4CF09
:1021400000F0E4CFD9FF120000C0E5FF01C0E5FFB9
:1021500002C0E5FF03C0E5FF04C0E5FF04014851EC
:102160000401471901E167D048C400F00050016E36
:102170000128006E009E600E0024016E026A000EAF
:10218000022201C0E9FF02C0EAFFEFCF52F41F0EA6
:102190000401521748C451F45251040151275151BE
:1021A000016E020E0124516F519FC3EC1BF0016EB2
:1021B000015003E1016A012A01D0016AC3EC1BF05E
:1021C0000401526F52C402F0800E021652C403F092
:1021D0001F0E031603C004F003C052F4045003E1C1
:1021E00047C448F43BD001501EE0025022E0C3EC4B
:1021F0001BF0006E04015251016E0104526F005039
:10220000420A17E000504E0A03E1ADEC18F011D07D
:102210000050460A03E108EC1FF00BD00050490AB9
:1022200008E1FF0006D048C453F40250D8B486EC4D
:102230000CF051C448F40501F3510501F41906E00E
:102240000401495103E139EC11F008D094B006D0F3
:102250000401495103E1ACB2D4EC1EF0E4CF04F028
:10226000E4CF03F0E4CF02F0E4CF01F0E4CF00F0DC
:10227000120000C0E5FF01C0E5FF02C0E5FF03C09A
:10228000E5FF04C0E5FFACA27ED0F5EC1CF0006ECB
:10229000005005E10501F46B0501F36B74D0F4C542
:1022A00001F000500126F5EC1CF0026E0050036EA8
:1022B0000304006E0250230A1FE1010E005CD8A047
:1022C00060D0F5EC1CF0026E690A03E168EC1BF0CB
:1022D00058D00250720A03E1D4EC1EF052D00250E2
:1022E000730A01E04ED09480AB869D8A9D98AE50D3
:1022F000AE50AB98AB8845D00250430A05E002507F
:10230000420A01E03ED006D000C003F0046A038E0A
:102310000350006E00C04BF400500401006F010E2A
:1023200004014C6F0501F451011814E0F5EC1CF0A8
:10233000026E04014B27000E04014C25006E036A57
:10234000040E032200C0E9FF03C0EAFF02C0EFFF52
:102350004C2BE8D7000E04014C25006E026A040ED7
:10236000022204014B1D036E032A00C0E9FF02C0D4
:10237000EAFF03C0EFFF04014C2B4CC449F40401F5
:10238000436B01C0F4F5E4CF04F0E4CF03F0E4CFF5
:1023900002F0E4CF01F0E4CF00F01200D9CFE5FF66
:1023A000E1CFD9FF00C0E5FF01C0E5FF02C0E5FFB6
:1023B00003C0E5FF04C0E5FF05C0E5FF06C0E5FF7B
:1023C00007C0E5FF08C0E5FF09C0E5FF0AC0E5FF5B
:1023D0000BC0E5FF0CC0E5FF0DC0E5FF020EDBCF33
:1023E00000F0030EDBCF01F0040EDBCF02F0050E90
:1023F000DBCF03F0060EDBCF04F0070EDBCF05F0DA
:10240000080EDBCF06F0090EDBCF07F0086A096A79
:102410000A6A0B6A200E0C6E0350800BE8440D6EA6
:1024200000500026013602360336085008260936C9
:102430000A360B360D50D8A4088007500B5C08E113
:1024400006500A5C05E10550095C02E10450085C95
:1024500009E30450085E0550095A06500A5A07500D
:102460000B5A00800C040D6E0DC00CF00D50D4E121
:1024700003C0E9FF02C0F4FF01C0F3FF0050E4CF46
:102480000DF0E4CF0CF0E4CF0BF0E4CF0AF0E4CF92
:1024900009F0E4CF08F0E4CF07F0E4CF06F0E4CF92
:1024A00005F0E4CF04F0E4CF03F0E4CF02F0E4CF92
:1024B00001F0E4CF00F0E4CFD9FF120000C0E5FF47
:1024C00001C0E5FF03C0E5FF04C0E5FF05C0E5FF6F
:1024D00006C0E5FF07C0E5FF08C0E5FF09C0E5FF4E
:1024E0000AC0E5FF0BC0E5FF3BC400F03CC401F0AF
:1024F00004013B3F01D03C2B0050E56EC6EC1EF0C2
:10250000E652076E046A056A066A3BC400F03CC4E2
:1025100001F004013B3F01D03C2B0050E56EC6ECBE
:102520001EF0E6520B6A0A6E086A08500412051281
:102530000A5006120B5007123BC400F03CC401F0D5
:1025400004013B3F01D03C2B0050E56EC6EC1EF071
:10255000E652036E006A03C001F0E86A03BEFF0E94
:10256000086E096E00500412015005120850061240
:10257000095007123BC400F03CC401F004013B3F8A
:1025800001D03C2B0050E56EC6EC1EF0E652016A0D
:102590000412015005120612071207C0E9FF06C017
:1025A000F4FF05C0F3FF0450E4CF0BF0E4CF0AF0D2
:1025B000E4CF09F0E4CF08F0E4CF07F0E4CF06F071
:1025C000E4CF05F0E4CF04F0E4CF03F0E4CF01F072
:1025D000E4CF00F01200D9CFE5FFE1CFD9FF00C072
:1025E000E5FF01C0E5FF02C0E5FF03C0E5FF04C051
:1025F000E5FF05C0E5FF06C0E5FF07C0E5FF020EE9
:10260000DBCF00F0030EDBCF01F0040EDBCF02F0D6
:10261000050EDBCF03F003C004F0056A0350D8B405
:1026200054D000C0E9FF01C0F3FF025097EC1EF048
:10263000066E430A08E1010E056E03C006F0076A44
:10264000068E0650036E0406002A02E3014A022A9F
:1026500094909D9AAB989D989EA8FED7AC80AD6A49
:1026600000009EA8FED7AC9003C0ADFF00009EA85E
:10267000FED7055004E0420EAD6E032604D0620E74
:10268000AD6E620E0326045015E000009EA8FED732
:1026900000C0E9FF01C0F3FF025097EC1EF0056E89
:1026A00005C0ADFF055003260406002A02E3014AD7
:1026B000022AE9D700009EA8FED7031CAD6EAD2A02
:1026C00000009EA8FED7D4EC1EF0E4CF07F0E4CFC4
:1026D00006F0E4CF05F0E4CF04F0E4CF03F0E4CF5C
:1026E00002F0E4CF01F0E4CF00F0E4CFD9FF120014
:1026F000D9CFE5FFE1CFD9FF00C0E5FF01C0E5FF7D
:1027000002C0E5FF03C0E5FF04C0E5FF05C0E5FF2B
:1027100006C0E5FF07C0E5FF020EDBCF00F0030EA9
:10272000DBCF01F0040EDBCF02F0050EDBCF03F0B0
:1027300002C006F00650046E800A33E100C0E9FFD3
:1027400001C0F3FF02504FEC1DF0056EF3CF06F011
:10275000F4CF07F003C0E5FF05C0E9FF06C0F3FFB3
:10276000075013EC1FF000C0E9FF01C0F3FF025057
:102770004FEC1DF0056EF3CF06F0F4CF07F0052AFD
:1027800002E3064A072A05C0E5FF06C0F4FF07C0BA
:10279000F6FF00C0E9FF01C0F3FF0250B7EC1EF0E6
:1027A00020D004C000F000AA1CD0007A0050046EB3
:1027B00004E1035056EC1FF014D00450010A04E168
:1027C000035002EC00F00DD004500F0A04E1035056
:1027D00037EC1BF006D004500E0A03E1035066EC00
:1027E0001FF0E4CF07F0E4CF06F0E4CF05F0E4CF2C
:1027F00004F0E4CF03F0E4CF02F0E4CF01F0E4CF43
:1028000000F0E4CFD9FF1200D9CFE5FFE1CFD9FF27
:1028100000C0E5FF01C0E5FF02C0E5FF03C0E5FF22
:1028200004C0E5FF05C0E5FF06C0E5FF07C0E5FF02
:10283000020EDBCF00F0030EDBCF01F0040EDBCF86
:1028400002F0050EDBCF03F0F4C5F5F50501F351F9
:102850000501F55FF551046E0404F56F03C004F043
:10286000056A030E0426D8B0052AF5C506F0076AE6
:102870000750800FF36E0550800FF35C02E10450A7
:10288000065C02E2E86830D0020E035C02E2E86A0D
:102890002BD00350046E0404036EE56EE8EC19F0CF
:1028A000E652046A0350045C14E204500024056EEE
:1028B000E86A0120066EE86A022005C0E9FF06C04A
:1028C000F3FF97EC1EF0042AE56EE8EC19F0E652EF
:1028D000E9D7F4C5F5F50501F3510501F55FF551AB
:1028E000006E0004F56FE86AE4CF07F0E4CF06F06D
:1028F000E4CF05F0E4CF04F0E4CF03F0E4CF02F03E
:10290000E4CF01F0E4CF00F0E4CFD9FF1200D9CF3B
:10291000E5FFE1CFD9FF00C0E5FF01C0E5FF02C040
:10292000E5FF03C0E5FF04C0E5FF05C0E5FF06C005
:10293000E5FF020EDBCF00F0030EDBCF01F0040E4B
:10294000DBCF02F000C0E9FF01C0F3FF0250D5EC7D
:102950001CF0036EF3CF04F0F4CF05F0E9CF06F0DE
:102960000650E56E0550E56E0450E56E0350E56EC9
:10297000410EE56EC60EE56E4E0EE56E6D0EE56E11
:10298000B3EC09F0036EF3CF04F0F4CF05F0E9CF18
:1029900006F0080EE126390E0326300E0422000E42
:1029A0000522062203C0E5FF04C0F4FF05C0F6FFC0
:1029B00006C0F7FF00C0E9FF01C0F3FF025086EC3C
:1029C0001EF0069E06C0E9FF05C0F4FF04C0F3FF39
:1029D0000350E4CF06F0E4CF05F0E4CF04F0E4CFF9
:1029E00003F0E4CF02F0E4CF01F0E4CF00F0E4CF55
:1029F000D9FF1200D9CFE5FFE1CFD9FF00C0E5FF35
:102A000001C0E5FF02C0E5FF03C0E5FF04C0E5FF2C
:102A100005C0E5FF06C0E5FF020EDBCF00F0030EA8
:102A2000DBCF01F0040EDBCF02F0050EDBCF03F0AD
:102A3000D88001AED890046A0436045007E0011C27
:102A4000066E001C056E054A062A04D000C005F07B
:102A500001C006F0D88003AED89007E3031C016ED6
:102A6000021C006E004A012A04D002C000F003C01C
:102A700001F00150E56E0050E56E0650E56E055020
:102A8000E56E0BEC17F0006EF3CF01F0040EE126BB
:102A900004500AE0011C036E001C026E024A032A65
:102AA00003C0F3FF025003D001C0F3FF0050E4CF96
:102AB00006F0E4CF05F0E4CF04F0E4CF03F0E4CF78
:102AC00002F0E4CF01F0E4CF00F0E4CFD9FF120030
:102AD000D9CFE5FFE1CFD9FF00C0E5FF01C0E5FF99
:102AE00002C0E5FF03C0E5FF04C0E5FF05C0E5FF48
:102AF00006C0E5FF020EDBCF00F0030EDBCF01F0D6
:102B0000040EDBCF02F000C0E9FF01C0F3FF02506A
:102B1000D5EC1CF00F012B6FF3CF2CFFF4CF2DFF62
:102B2000E9CF2EFF800EE56E0F0EE56E2B0EE56EE3
:102B300087EC14F0036EF3CF04F0F4CF05F0E9CF87
:102B400006F0030EE12603C0E5FF04C0F4FF05C054
:102B5000F6FF06C0F7FF00C0E9FF01C0F3FF025017
:102B600086EC1EF000C0E9FF01C0F3FF0250D5EC77
:102B70001CF0F3CF01F0F4CF02F0E9CF03F003C073
:102B8000E9FF02C0F4FF01C0F3FFE4CF06F0E4CF99
:102B900005F0E4CF04F0E4CF03F0E4CF02F0E4CF9B
:102BA00001F0E4CF00F0E4CFD9FF1200D9CFE5FF68
:102BB000E1CFD9FF00C0E5FF01C0E5FF02C0E5FF9E
:102BC00003C0E5FF04C0E5FF05C0E5FF020EDBCF53
:102BD00000F0030EDBCF01F0040EDBCF02F0050E98
:102BE000DBCF03F03BC404F03CC405F004013B3FE1
:102BF00001D03C2B0350E56E0450E56EB1EC1CF0A7
:102C0000E652E6523BC404F03CC405F004013B3FED
:102C100001D03C2B0250056EE56E0450E56EB1EC20
:102C20001CF0E652E6523BC404F03CC405F004013B
:102C30003B3F01D03C2B0150E56E0450E56EB1ECFA
:102C40001CF0E652E6523BC404F03CC405F004011B
:102C50003B3F01D03C2B0050E56E0450E56EB1ECDB
:102C60001CF0E652E652E4CF05F0E4CF04F0E4CFE6
:102C700003F0E4CF02F0E4CF01F0E4CF00F0E4CFC2
:102C8000D9FF1200D9CFE5FFE1CFD9FF00C0E5FFA2
:102C900001C0E5FF02C0E5FF03C0E5FF04C0E5FF9A
:102CA00005C0E5FF06C0E5FF020EDBCF00F0030E16
:102CB000DBCF01F0040EDBCF02F00401425119E139
:102CC0005EEC12F0036EF3CF04F0F4CF05F0E9CF21
:102CD00006F003C0E5FF04C0F4FF05C0F6FF06C020
:102CE000F7FF00C0E9FF01C0F3FF025086EC1EF0C1
:102CF0001ED004014251010A1AE100C0E9FF01C0DF
:102D0000F3FF0250D5EC1CF0006EF3CF01F0F4CFCE
:102D100002F0E9CF03F00350E56E0250E56E01507A
:102D2000E56E0050E56ED6EC15F0040EE126E4CF1A
:102D300006F0E4CF05F0E4CF04F0E4CF03F0E4CFF5
:102D400002F0E4CF01F0E4CF00F0E4CFD9FF1200AD
:102D5000D9CFE5FFE1CFD9FF00C0E5FF01C0E5FF16
:102D600002C0E5FF03C0E5FF04C0E5FF05C0E5FFC5
:102D700006C0E5FF020EDBCF00F0030EDBCF01F053
:102D8000040EDBCF02F0050EDBCF03F0060EDBCF27
:102D900004F0070EDBCF05F0080EDBCF06F0D8807D
:102DA00003AED89015E306500A0A12E104C0E9FF09
:102DB00005C0EAFF2D0EEF6E044A052A031E021E0F
:102DC000011E006C05E1012A03E1022AD8B4032A9E
:102DD0000650E56E0550E56E0450E56E0350E56E55
:102DE0000250E56E0150E56E0050E56EAAEC0BF066
:102DF000070EE126E4CF06F0E4CF05F0E4CF04F0BF
:102E0000E4CF03F0E4CF02F0E4CF01F0E4CF00F030
:102E1000E4CFD9FF1200D9CFE5FFE1CFD9FF00C041
:102E2000E5FF01C0E5FF02C0E5FF03C0E5FF04C008
:102E3000E5FF05C0E5FF06C0E5FF020EDBCF00F0B1
:102E4000030EDBCF01F0040EDBCF02F0050EDBCF6B
:102E500003F0046A056A0350800BE844066E0650CE
:102E600011E10250022603360350015C02E10250D8
:102E7000005C04E2D8900332023204D0052A05C077
:102E800004F0E9D70350015C02E10250005C04E366
:102E90000250005E0350015AD8900332023204C03F
:102EA00005F004060550EEE101C0F3FF0050E4CF49
:102EB00006F0E4CF05F0E4CF04F0E4CF03F0E4CF74
:102EC00002F0E4CF01F0E4CF00F0E4CFD9FF12002C
:102ED000D9CFE5FFE1CFD9FF00C0E5FF01C0E5FF95
:102EE00002C0E5FF03C0E5FF04C0E5FF05C0E5FF44
:102EF00006C0E5FF07C0E5FF020EDBCF00F0030EC2
:102F0000DBCF01F0026A02500C0DF450046EF3CFD7
:102F100003F0A80E0326050E04220350020F056ECF
:102F2000000E0420066E0050076E05C0E9FF06C0C3
:102F3000EAFF07C0EFFF070E0326D8B0042A0050AF
:102F4000056E052A03C0E9FF04C0EAFF05C0EFFFD4
:102F5000022A060E025CD7E3E4CF07F0E4CF06F0C6
:102F6000E4CF05F0E4CF04F0E4CF03F0E4CF02F0C7
:102F7000E4CF01F0E4CF00F0E4CFD9FF120000C0AD
:102F8000E5FF01C0E5FF02C0E5FF03C0E5FF48C45F
:102F900000F0016A53C402F0036A0250005E03505D
:102FA000015AE56A800EE56E0150E56E0050E56E4F
:102FB000FAEC14F0006E040EE126000653C401F092
:102FC000430E37EC1BF0200E37EC1BF0005020E0D6
:102FD000600E0124026E036A000E032202C0E9FFA4
:102FE00003C0EAFFEFCF02F0E56A0250E56E000E83
:102FF000E56E3D0EE56EC00EE56EEFEC18F0050EC9
:10300000E126012A0150800A01E1016A0006DED7AB
:10301000E4CF03F0E4CF02F0E4CF01F0E4CF00F01E
:103020001200D9CFE5FFE1CFD9FF00C0E5FF01C015
:10303000E5FF02C0E5FF03C0E5FF04C0E5FF020EA7
:10304000DBCF00F0030EDBCF01F0040EDBCF02F08C
:103050000401425111E1D1EC1AF0036EF3CF04F0F8
:1030600003C0E5FF04C0F4FF00C0E9FF01C0F3FFA7
:103070000250F0EC1EF016D004014251010A12E198
:1030800000C0E9FF01C0F3FF02500EEC1EF0006E1D
:10309000F3CF01F00150E56E0050E56EABEC19F096
:1030A000E652E652E4CF04F0E4CF03F0E4CF02F0BE
:1030B000E4CF01F0E4CF00F0E4CFD9FF1200840E9A
:1030C000F66E3E0EF76E000EF86E0900F550056EB6
:1030D0000900F550066E04E1056702D0ACEF18F068
:1030E0000900F550006E0900F550016E0900F55019
:1030F000026E09000900F550E96E0900F550EA6E0C
:10310000090009000900F550036E0900F550046E2E
:1031100009000900F6CF07F0F7CF08F0F8CF09F063
:1031200000C0F6FF01C0F7FF02C0F8FF035002E144
:10313000045007E00900F550EE6E0306F8E20406BD
:10314000F9D707C0F6FF08C0F7FF09C0F8FF05066A
:1031500001E206066BEF18F0120000C0E5FF01C0A7
:10316000E5FF02C0E5FFC3EC1BF0006EC3EC1BF0F3
:10317000016E0050026ED00E0224006E0A0E005C3A
:1031800005E30050026EF90E0224006E0150026E3B
:10319000D00E0224016E0A0E015C05E30150026E9E
:1031A000F90E0224016E080E005C12E2100E015CA2
:1031B000D8B00ED00038F00B0124006E5FEC1AF08E
:1031C000016E015005E10050E56E84EC1DF0E65201
:1031D000E4CF02F0E4CF01F0E4CF00F01200D9CF49
:1031E000E5FFE1CFD9FF00C0E5FF01C0E5FF02C068
:1031F000E5FF020ED924006E000EDA20016E800E6B
:10320000026E030E0026000E012202220250E56E1D
:103210000150E56E0050E56E040EDBCFE5FF030EB6
:10322000DBCFE5FF020EDBCFE5FF0F013151E56E8D
:103230003051E56E2F51E56E0EEC00F0006EF3CFCD
:1032400001F0090EE12601C0F3FF0050E4CF02F0C7
:10325000E4CF01F0E4CF00F0E4CFD9FF1200D9CFE2
:10326000E5FFE1CFD9FF00C0E5FF01C0E5FF02C0E7
:10327000E5FF03C0E5FF020EDBCF00F0030EDBCF5E
:1032800001F0040EDBCF02F0040142510DE1E2EC4B
:103290001DF0036E03C0E5FF00C0E9FF01C0F3FFAE
:1032A000025013EC1FF00FD004014251010A0BE150
:1032B00000C0E9FF01C0F3FF025097EC1EF0E56E7D
:1032C00066EC1CF0E652E4CF03F0E4CF02F0E4CF6A
:1032D00001F0E4CF00F0E4CFD9FF120001C0E5FF18
:1032E00002C0E5FF03C0E5FF49EC1FF094928B920A
:1032F00005EC1BF099EC1BF0F3CF01F0F4CF02F0DA
:10330000E9CF03F0880F0401306F130E0120316FF5
:10331000000E0220326F000E0320336F16EC1CF0FB
:10332000F3CF01F00501006F0150016FD00E0401D1
:10333000396F070E3A6FE56A0A0EE56E68EC17F012
:10334000E652E65228EC1FF0E4CF03F0E4CF02F09F
:10335000E4CF01F01200D9CFE5FFE1CFD9FF00C0E3
:10336000E5FF01C0E5FF02C0E5FF03C0E5FF020E77
:10337000DBCF00F0030EDBCF01F03BC402F03CC416
:1033800003F004013B3F01D03C2B0150E56E02509D
:10339000E56EB1EC1CF0E652E6523BC402F03CC4D0
:1033A00003F004013B3F01D03C2B0050E56E02507E
:1033B000E56EB1EC1CF0E652E652E4CF03F0E4CF48
:1033C00002F0E4CF01F0E4CF00F0E4CFD9FF120027
:1033D000D9CFE5FFE1CFD9FF00C0E5FF01C0E5FF90
:1033E00002C0E5FF03C0E5FF04C0E5FF020EDBCF2E
:1033F00000F0F3C501F0026A014A022AF4C503F0A5
:10340000046A0150031803E10250041801E001D0DE
:103410000ED0000E0501F325016E026A010E022294
:1034200001C0E9FF02C0EAFF00C0EFFFF32BE4CFC9
:1034300004F0E4CF03F0E4CF02F0E4CF01F0E4CFF6
:1034400000F0E4CFD9FF1200D9CFE5FFE1CFD9FFDB
:1034500000C0E5FF01C0E5FF02C0E5FF03C0E5FFD6
:10346000020EDBCF00F0016A53C402F0036A02507F
:10347000002603500122E56A800EE56E0150E56EDC
:103480000050E56EFAEC14F0006EF3CF01F0040E7C
:10349000E126600E0026000E012200C0E9FF01C0F7
:1034A000EAFFEFCF00F00050E4CF03F0E4CF02F0EA
:1034B000E4CF01F0E4CF00F0E4CFD9FF120000C068
:1034C000E5FF01C0E5FF02C0E5FF010E006EC3ECA1
:1034D0001BF0016E01C002F0015023E00050E56EC8
:1034E000C6EC1EF0016EE652015010E10A0E005CBF
:1034F0000BE20A0E006EE56EC6EC1EF0016EE6529F
:10350000015004E1E8680ED0E8680CD001500218C0
:1035100002E0E86807D0002A1B0E005CD8E3E868E8
:1035200001D0E86AE4CF02F0E4CF01F0E4CF00F08C
:103530001200F3CFE5FFF4CFE5FFE9CFE5FFEACFD7
:10354000E5FFFACFE5FFFBCFE5FF0501F1510401EF
:10355000366F0501F2510401376FD650346FD750E2
:10356000356FF2A411D00501F13F01D0F22BF29496
:103570000501F1510401366F0501F2510401376F65
:10358000D650346FD750356FE4CFFBFFE4CFFAFF4E
:10359000E4CFEAFFE4CFE9FFE4CFF4FFE4CFF3FFA9
:1035A000110000C0E5FF01C0E5FF02C0E5FF03C058
:1035B000E5FF3BC400F03CC401F004013B3F01D0F7
:1035C0003C2B0050E56EC6EC1EF0E652036E026A1C
:1035D0003BC400F03CC401F004013B3F01D03C2B54
:1035E0000050E56EC6EC1EF0E652016A0212015070
:1035F000031203C0F3FF0250E4CF03F0E4CF02F064
:10360000E4CF01F0E4CF00F0120000C0E5FF01C0FC
:10361000E5FF02C0E5FF03C0E5FF006A016A000E96
:103620000024026E020E0120036E02C0E9FF03C0F7
:10363000EAFFEF6A004A012A0150800F7F0F02E182
:10364000000E005CECE38A8C939C7086728A728414
:10365000728C7280718E04013F6B406BE4CF03F07B
:10366000E4CF02F0E4CF01F0E4CF00F0120000C09C
:10367000E5FF01C0E5FF02C0E5FF006E000E050199
:10368000F825016E026A0F0E022201C0E9FF02C096
:10369000EAFF00C0EFFF220EF85D01E2F82B0050B8
:1036A0000A0A0FE10501F851E56E800EE56E0F0E76
:1036B000E56E000EE56E04EC14F0040EE126050143
:1036C000F86BE4CF02F0E4CF01F0E4CF00F0120099
:1036D0000501F36B0501F46B0501F56994808B908E
:1036E0009480B06A3F0EAF6EB886AC8AAC84AC8C66
:1036F000AC90AB8CAB8E04014A6B0401446B0401AB
:10370000476B0401486B0401496B000EE56AC6EC87
:103710001EF00501F76FE6529F989F9A010E050172
:10372000F66F0F012F6B306B2F0E316FD4EC1EF044
:1037300012000501F1510401836F0501F2510401EA
:10374000846FD650816FD750826F83510501F11974
:1037500005E1040184510501F2190CE00501F15164
:103760000401836F0501F2510401846FD650816F0B
:10377000D750826F84C4E9FF83C4F4FF82C4F3FF8F
:1037800004018151120000C0E5FF01C0E5FF040102
:1037900048510401511905E0040148510401471939
:1037A00002E1E86A15D048C400F00401482B016A20
:1037B000600E0026000E012200C0E9FF01C0EAFFF2
:1037C000EFCF00F04851800A02E10401486B00503D
:1037D000E4CF01F0E4CF00F01200D9CFE5FFE1CF54
:1037E000D9FF00C0E5FF01C0E5FF02C0E5FF020E02
:1037F000DBCF00F0030EDBCF01F0040EDBCF02F0D5
:10380000005001100AE0000E0026020E012200C046
:10381000E9FF01C0EAFF02C0EFFFE4CF02F0E4CF0E
:1038200001F0E4CF00F0E4CFD9FF120000C0E5FFC3
:1038300001C0E5FF02C0E5FF03C0E5FF800EE56EB5
:10384000050EE56EFC0EE56E87EC14F0006EF3CF0E
:1038500001F0F4CF02F0E9CF03F0030EE12603C03C
:10386000E9FF02C0F4FF01C0F3FF0050E4CF03F012
:10387000E4CF02F0E4CF01F0E4CF00F0120000C08A
:10388000E5FF5AEC1FF00401896B806B8983006AA5
:1038900089B3002A0050010BE844F46E8051FD0BFF
:1038A000F410806FD58ED59CD59AD588D596D594B1
:1038B000D582D580F28AF184D08EF28EF28CBA80D5
:1038C000FF0EBB68BA84E4CF00F01200D9CFE5FF49
:1038D000E1CFD9FF00C0E5FF01C0E5FF02C0E5FF71
:1038E000020EDBCF00F03BC401F03CC402F0040147
:1038F0003B3F01D03C2B0050E56E0150E56EB1EC32
:103900001CF0E652E652E4CF02F0E4CF01F0E4CF3F
:1039100000F0E4CFD9FF1200D8CFE5FFE0CFE5FFFC
:10392000E56EF3CFE5FFF4CFE5FFE9CFE5FFEACFA2
:10393000E5FFFACFE5FFFBCFE5FF94EC08F0E4CF1D
:10394000FBFFE4CFFAFFE4CFEAFFE4CFE9FFE4CFE7
:10395000F4FFE4CFF3FFE450E4CFE0FFE4CFD8FF7F
:103960001000D9CFE5FFE1CFD9FF00C0E5FF020E7F
:10397000DBCF00F0030EDBCFA8FF00C0A9FFA69E9F
:10398000A69CA684F29EF29C550EA76EAA0EA76E68
:10399000A682A6A202D00000FCD7A694F28EF28CDA
:1039A000E4CF00F0E4CFD9FF1200E8AE0AD0F3CFA5
:1039B000EAFFEE50EECFF3FFEECFF4FFEECFE9FFDC
:1039C0001200E8BC6DEF1FF0E9CFF6FFF3CFF7FF71
:1039D000F86E0900F5500900F5CFF3FF0900F5CFA7
:1039E000F4FF0900F5CFE9FF120000C0E5FF01C0B8
:1039F000E5FF0501F3510501F41902E1E86A0FD072
:103A0000000E0501F425006E016A010E012200C0BE
:103A1000E9FF01C0EAFFEFCF00F0F42B0050E4CF44
:103A200001F0E4CF00F01200F2CFEAFFF29EA69E72
:103A3000A69CA684E9CFA9FFF3CFAAFFE4CFA8FFF5
:103A400031EC1FF0F4CFA8FF31EC1FF0F6CFA8FF48
:103A500031EC1FF0F7CFA8FF31EC1FF0A694EABEBF
:103A6000F28E1200F2CFF6FFF29EA69EA69CE9CF40
:103A7000A9FFF3CFAAFFA680A850A94AAA2AA68028
:103A8000A8CFF3FFA94AAA2AA680A8CFF4FFA94A83
:103A9000AA2AA680A8CFEAFFF6BEF28E1200E8AEF0
:103AA00008D0F3CFEAFFEE50EECFF3FFEECFF4FFF6
:103AB0001200E8BC75EF1FF0E9CFF6FFF3CFF7FF78
:103AC000F86E0900F5500900F5CFF3FF0900F5CFB6
:103AD000F4FF1200F2CFEAFFF29EA69EA69CA684F7
:103AE000E9CFA9FFF3CFAAFFE4CFA8FF31EC1FF085
:103AF000F4CFA8FF31EC1FF0F6CFA8FF31EC1FF098
:103B0000A694EABEF28E1200D9CFE5FFE1CFD9FF2D
:103B100000C0E5FF020EDBCF00F000C0F7F500505B
:103B2000E56E000EE56AB1EC1CF0E652E652E4CF19
:103B300000F0E4CFD9FF1200F2CFF6FFF29EA69E6E
:103B4000A69CE9CFA9FFF3CFAAFFA680A850A94A57
:103B5000AA2AA680A8CFF3FFA94AAA2AA680A8CF9E
:103B6000F4FFF6BEF28E120000C0E5FF01C0E5FFD3
:103B7000600E04014825006E016A000E012200C09B
:103B8000E9FF01C0EAFFEFCF00F00050E4CF01F001
:103B9000E4CF00F01200D9CFE5FFE1CFD9FF00C09C
:103BA000E5FF020EDBCF00F0610E005C05E37B0E4B
:103BB000005C02E2010E01D0E86AE4CF00F0E4CF3D
:103BC000D9FF120000C0E5FF01C0E5FF3BC400F0D3
:103BD0003CC401F004013B3F01D03C2B0050E56E9A
:103BE000C6EC1EF0E652E4CF01F0E4CF00F0120084
:103BF000D9CFE5FFE1CFD9FF00C0E5FF020EDBCF53
:103C000000F000C0F6F5005004E1D4EC1EF09D9ADF
:103C10009D98E4CF00F0E4CFD9FF1200E8AE06D0C3
:103C2000F3CFEAFFEE50EECFF3FF1200E8BC6BEFEC
:103C30001FF0E9CFF6FFF3CFF7FFF86E0900F5505C
:103C40000900F5CFF3FF1200F2CFEAFFF29EA69E25
:103C5000A69CA684E9CFA9FFF3CFAAFFE4CFA8FFD3
:103C600031EC1FF0F4CFA8FF31EC1FF0A694EABEB0
:103C7000F28E120013EEFFF023EEFFF0F86AA68E2C
:103C8000A69CE9680E0EEA6E0068000EED6A005010
:103C9000FDE15FEC18F006EC00F0FFD7D9CFE5FFAF
:103CA000E1CFD9FF020EDBCFFCF5030EDBCFFDF534
:103CB000040EDBCFFEF5050EDBCFFFF5E4CFD9FF19
:103CC0001200F2CFF6FFF29EA69EA69CE9CFA9FFB6
:103CD000F3CFAAFFA680A850A94AAA2AA680A8CFF7
:103CE000F3FFF6BEF28E1200F2CFEAFFF29EA69E1E
:103CF000A69CA684E9CFA9FFF3CFAAFFE4CFA8FF33
:103D000031EC1FF0A694EABEF28E1200E8AE0BD0A2
:103D1000F3CFEAFFE4CFEEFFF4CFEEFFF6CFEEFFF6
:103D2000F7CFEEFF1200E8BC6FEF1FF01200E8AE15
:103D300004D0F3CFEAFFEE501200E8BC69EF1FF0A9
:103D4000E9CFF6FFF3CFF7FFF86E0900F550120048
:103D500000C0E5FF006A0050E56E00EC0EF0E65290
:103D6000002A060E005CF7E3E4CF00F01200E8AE94
:103D700009D0F3CFEAFFE4CFEEFFF4CFEEFFF6CFAA
:103D8000EEFF1200E8BC77EF1FF01200D9CFE5FF7D
:103D9000E1CFD9FF020EDBCFA9FFA69CA69EA6808D
:103DA000A850E4CFD9FF1200ACA2FED79480AE5049
:103DB0000000AE50AB98AB88AB869D8A9D981200F0
:103DC00025642000F2CFF6FFF29EA69EA69CE9CFC6
:103DD000A9FFF3CFAAFFA680A850F6BEF28E12006C
:103DE000E8AE07D0F3CFEAFFE4CFEEFFF4CFEEFF6B
:103DF0001200E8BC73EF1FF01200700ED36E9B8CA4
:103E0000FF0E9268936894689668626AF19E120049
:103E100000C0E5FF5FEC1AF0006E005001E1FF000A
:103E2000E4CF00F01200E8AE05D0F3CFEAFFE4CF14
:103E3000EEFF1200E8BC71EF1FF01200010E04014A
:103E4000426F1C0E04013B6F3C6BA8EC1EF012008D
:103E50000401426B1C0E04013B6F3C6BA8EC1EF08E
:103E60001200550EA76EAA0EA76EA682A6B2FED7A6
:103E7000A94AAA2A0100000000FF000000FDFF007F
:103E8000010000000100743E0000F0050000100079
:103E900000003FEC1CF068EC1BF01200766AA50EE7
:103EA000756E1200766A3F0E756E1200ACA2FED7D8
:103EB000AD6E1200FDEC1EF012000401485112001C
:103EC0000401525112000501F6511200E8CF7FFFA4
:103ED0001200E2EF1EF061EF1EF032EF1DF014EF62
:103EE0001DF074EF1EF024EF1EF09CEF1DF06AEF42
:023EF0001DF0C3
:020000040030CA
:010006008574
:00000001FF
