:020000040000FA
:100000008CEF25F0C96E1200EEEF21F0D4EC1EF05B
:10001000DEEC11F0FDD71200DEEF23F0D9CFE5FFC3
:10002000E1CFD9FF00C0E5FF01C0E5FF02C0E5FF59
:1000300003C0E5FF04C0E5FF05C0E5FF06C0E5FF1E
:1000400007C0E5FF08C0E5FF09C0E5FF0AC0E5FFFE
:100050000BC0E5FF0CC0E5FF0DC0E5FF0EC0E5FFDE
:100060000FC0E5FF10C0E5FF11C0E5FF12C0E5FFBE
:1000700013C0E5FF14C0E5FF15C0E5FF16C0E5FF9E
:1000800017C0E5FF18C0E5FF19C0E5FF1AC0E5FF7E
:100090001BC0E5FF1CC0E5FF1DC0E5FF1EC0E5FF5E
:1000A000020EDBCF00F0030EDBCF01F0040EDBCF3E
:1000B00002F0050EDBCF03F0060EDBCF04F0070ED7
:1000C000DBCF05F0080EDBCF06F0090EDBCF07F023
:1000D0000A0EDBCF08F0096A0A6A02C00DF00D5063
:1000E000800A0DE1025004019F6F01509E6F005085
:1000F0009D6F040E016E9D0E006E800E026E03C099
:10010000E9FF04C0F3FF0550FAEC25F00B6E0B502D
:10011000D8B4C4EF03F00B50250A02E0ABEF03F0B4
:100120000C6A0D6A0E6A0F6A106A0A0E116E126A64
:10013000136A146A200E156E1668176A2B0E186E55
:10014000032A02E3044A052A03C0E9FF04C0F3FFBF
:100150000550FAEC25F0196E250A13E11950E56EE9
:100160000250E56E0150E56E0050E56E43EC19F06B
:10017000040EE126094A0A2A032A02E3044A052A50
:10018000BED71950300A06E1300E156E032A02E37D
:10019000044A052A03C0E9FF04C0F3FF0550FAEC46
:1001A00025F02D0A06E1010E146E032A02E3044A2B
:1001B000052A03C0E9FF04C0F3FF0550FAEC25F05F
:1001C000200A08E1010E176E200E186E032A02E3C2
:1001D000044A052A03C0E9FF04C0F3FF0550FAEC06
:1001E00025F02B0A06E1010E176E032A02E3044AEA
:1001F000052A03C0E9FF04C0F3FF0550FAEC25F01F
:10020000196E310E195C2BE33A0E195C28E203C01B
:1002100019F004C01AF005C01BF019C0E9FF1AC09C
:10022000F3FF1B50FAEC25F01C6E300E1C5C11E342
:100230003A0E1C5C0EE213500A0DF3CF1DF01C5059
:100240001D26D00E1D24136E192A02E31A4A1B2AFA
:10025000E4D719C003F01AC004F01BC005F003C0B6
:10026000E9FF04C0F3FF0550FAEC25F02E0A2DE15A
:10027000032A02E3044A052A166A03C019F004C0DF
:100280001AF005C01BF019C0E9FF1AC0F3FF1B509C
:10029000FAEC25F01C6E300E1C5C11E33A0E1C5C6F
:1002A0000EE216500A0DF3CF1DF01C501D26D00E85
:1002B0001D24166E192A02E31A4A1B2AE4D719C014
:1002C00003F01AC004F01BC005F003C0E9FF04C02E
:1002D000F3FF0550FAEC25F0196E6C0A07E1010EE8
:1002E0000C6E032A02E3044A052A09D01950680A51
:1002F00006E1010E0E6E032A02E3044A052A03C03A
:10030000E9FF04C0F3FF0550FAEC25F0750A06E199
:10031000010E106E032A02E3044A052A03C0E9FF16
:1003200004C0F3FF0550FAEC25F0196E730A05E1DD
:10033000010E0D6E200E156E3FD01950780A03E1A4
:10034000100E116E39D01950580A05E1100E116EB9
:10035000010E126E31D01950630A02E1116A2CD0DD
:1003600019506F0A03E1080E116E26D01950660A63
:1003700003E1010E0F6E20D01950640A1DE01950E0
:10038000690A1AE0105005E0FF0E03260422052238
:1003900013D01950E56E0250E56E0150E56E005025
:1003A000E56E43EC19F0040EE126094A0A2A032AF5
:1003B00002E3044A052AA3D60D5021E00650030F9C
:1003C0000D6E000E0720196E000E08201A6E0DC06B
:1003D00006F019C007F01AC008F0FD0E0D26FF0E3A
:1003E00019221A220DC0E9FF19C0F3FF1A50A1EC1F
:1003F00024F00D6EF3CF19F0F4CF1AF0FDD00F50AA
:100400000DE0000E1A6E080E196E100E0D6E040E21
:100410000626000E072208221668EED016680C5039
:1004200023E00650040F0C6E000E07200F6E000E26
:1004300008201B6E0CC006F00FC007F01BC008F0B0
:10044000FC0E0C26FF0E0F221B220CC0E9FF0FC072
:10045000F3FF1B5027EC24F00C6EF3CF0FF0F4CF1A
:100460001BF0E9CF1CF067D00E502FE00650020FB2
:100470000E6E000E07201D6E000E08201E6E0EC0B0
:1004800006F01DC007F01EC008F0FE0E0E26FF0E7F
:100490001D221E220EC0E9FF1DC0F3FF1E5060EC9E
:1004A00025F00E6E0EC00CF00F6A1B6A1C6A11500C
:1004B0000A0A03E11050D8B43ED00C500E6E0EC0A4
:1004C0000CF00F6A1B6A1C6A36D00650020F0E6EC3
:1004D000000E07201D6E000E08201E6E0EC006F0D6
:1004E0001DC007F01EC008F0FE0E0E26FF0E1D22D6
:1004F0001E220EC0E9FF1DC0F3FF1E5060EC25F068
:100500000E6EF3CF1DF00EC00CF01DC00FF0E86AA8
:100510001DBEFF0E1B6E1C6E11500A0A02E1105028
:100520000AE00C500E6E0F501D6E0EC00CF01DC078
:100530000FF01B6A1C6A040E196E240E0D6E800EDD
:100540001A6E1150D8B440D0105013E01150E56E1F
:10055000040EE56E240EE56E1C50E56E1B50E56E34
:100560000F50E56E0C50E56E02EC11F0070EE1261F
:1005700012D01150E56E040EE56E240EE56E1C508F
:10058000E56E1B50E56E0F50E56E0C50E56E67ECA6
:100590001DF0070EE12617502FE00DC0E9FF19C02E
:1005A000F3FF1A50FAEC25F02D0A26E0FF0E0D2677
:1005B00019221A2218C0E5FF0DC0E9FF19C0F3FF88
:1005C0001A5067EC26F018D00CC0E5FF0DC0E9FF0B
:1005D00019C0F3FF1A5067EC26F00D50010F0C6E96
:1005E000000E19200E6E000E1A20E56A0CC0E9FFFD
:1005F0000EC0F3FF67EC26F00DC00CF019C00EF032
:100600001AC00FF013C010F0105010E00CC0E9FF3A
:100610000EC0F3FF0F50FAEC25F0176E175006E0EE
:100620000C2A02E30E4A0F2A1006EED710C013F070
:1006300014501EE109C00CF00AC00EF010C00FF0FB
:100640000F5010E01550E56E0250E56E0150E56E5A
:100650000050E56E43EC19F0040EE1260C4A0E2A18
:100660000F06EED70CC009F00EC00AF00FC013F051
:1006700016C00CF00DC00DF019C00EF01AC00FF02E
:1006800009C010F00AC015F00DC0E9FF0EC0F3FF5D
:100690000F50FAEC25F0166E1650D8B43ED00CC0B0
:1006A00016F0176A161E171E1650171005E00CC01C
:1006B00016F00C06165031E00DC0E9FF0EC0F3FF36
:1006C0000F50FAEC25F0116E125010E01150E56E4B
:1006D0001DEC25F0166EE652165004E0DF0E1114E4
:1006E000166E02D011C016F016C011F01150E56E52
:1006F0000250E56E0150E56E0050E56E43EC19F0D6
:10070000040EE1260D2A02E30E4A0F2A104A152A8A
:100710001350D8B4B9D71306B7D710C009F015C015
:100720000AF014502BE010C00CF015C00DF013C0EF
:100730000EF00E501FE0200EE56E0250E56E0150E7
:10074000E56E0050E56E43EC19F0040EE1260C4A0C
:100750000D2A0E06EED70B50E56E0250E56E0150E5
:10076000E56E0050E56E43EC19F0040EE126094AEF
:100770000A2A04D00CC009F00DC00AF0032A02E3D3
:10078000044A052A7FEF00F00AC0F3FF0950E4CFC6
:100790001EF0E4CF1DF0E4CF1CF0E4CF1BF0E4CF5B
:1007A0001AF0E4CF19F0E4CF18F0E4CF17F0E4CF5B
:1007B00016F0E4CF15F0E4CF14F0E4CF13F0E4CF5B
:1007C00012F0E4CF11F0E4CF10F0E4CF0FF0E4CF5B
:1007D0000EF0E4CF0DF0E4CF0CF0E4CF0BF0E4CF5B
:1007E0000AF0E4CF09F0E4CF08F0E4CF07F0E4CF5B
:1007F00006F0E4CF05F0E4CF04F0E4CF03F0E4CF5B
:1008000002F0E4CF01F0E4CF00F0E4CFD9FF120012
:100810003C4E4F20464C4F41543E0000D9CFE5FF9F
:10082000E1CFD9FF00C0E5FF01C0E5FF02C0E5FF51
:1008300003C0E5FF04C0E5FF05C0E5FF06C0E5FF16
:1008400007C0E5FF08C0E5FF09C0E5FF0AC0E5FFF6
:100850000BC0E5FF0CC0E5FF0DC0E5FF0EC0E5FFD6
:100860000FC0E5FF10C0E5FF11C0E5FF12C0E5FFB6
:10087000020EDBCF00F00050140DF450026EF3CFE7
:1008800001F0000E0126050E02220150040F036E36
:10089000000E0220046E68EC23F0056EF3CF06F024
:1008A0001F0E0616076A086AF00E0626FF0E0722BC
:1008B00008220850E56E0750E56E0650E56E0550BB
:1008C000E56E52EC1AF0056EF3CF06F0F4CF07F0A8
:1008D000E9CF08F0040EE12603C0E9FF04C0EAFFF7
:1008E000EECF09F0EECF0AF0EECF0BF0EFCF0CF029
:1008F00004014351E56E4251E56E4151E56E4051B0
:10090000E56E0C50E56E0B50E56E0A50E56E095031
:10091000E56E0850E56E0750E56E0650E56E055031
:10092000E56E25EC10F0056EF3CF06F0F4CF07F07E
:10093000E9CF08F00C0EE12603C0E9FF04C0EAFF8E
:1009400005C0EEFF06C0EEFF07C0EEFF08C0EFFFD8
:1009500002EC14F00150080F056E000E0220066E26
:1009600003C0E9FF04C0EAFFEECF03F0EECF04F0CE
:10097000EECF07F0EFCF08F005C0E9FF06C0EAFFB1
:10098000EECF09F0EECF0AF0EECF0BF0EFCF0CF088
:1009900004014351E56E4251E56E4151E56E40510F
:1009A000E56E0C50E56E0B50E56E0A50E56E095091
:1009B000E56E0850E56E0750E56E0450E56E035095
:1009C000E56E25EC10F0036EF3CF04F0F4CF07F0E2
:1009D000E9CF08F00C0EE12605C0E9FF06C0EAFFEA
:1009E00003C0EEFF04C0EEFF07C0EEFF08C0EFFF3C
:1009F00002EC14F001500C0F036E000E0220046E86
:100A000068EC23F0076EF3CF08F01F0E0816096A92
:100A10000A6AF00E0826FF0E09220A220A50E56E25
:100A20000950E56E0850E56E0750E56E52EC1AF07D
:100A3000076EF3CF08F0F4CF09F0E9CF0AF0040E07
:100A4000E12603C0E9FF04C0EAFFEECF0BF0EECFD2
:100A50000CF0EECF0DF0EFCF0EF004014B51E56E30
:100A60004A51E56E4951E56E4851E56E0E50E56E0E
:100A70000D50E56E0C50E56E0B50E56E0A50E56EBC
:100A80000950E56E0850E56E0750E56E25EC10F054
:100A9000076EF3CF08F0F4CF09F0E9CF0AF00C0E9F
:100AA000E12603C0E9FF04C0EAFF07C0EEFF08C06B
:100AB000EEFF09C0EEFF0AC0EFFF02EC14F0015098
:100AC000100F076E000E0220086E03C0E9FF04C07D
:100AD000EAFFEECF03F0EECF04F0EECF09F0EFCF58
:100AE0000AF007C0E9FF08C0EAFFEECF0BF0EECF37
:100AF0000CF0EECF0DF0EFCF0EF004014B51E56E90
:100B00004A51E56E4951E56E4851E56E400EE56E7D
:100B1000000EE56AE56AE56A45EC09F00F6EF3CF71
:100B200010F0F4CF11F0E9CF12F0080EE1261250C8
:100B3000E56E1150E56E1050E56E0F50E56E0E50EB
:100B4000E56E0D50E56E0C50E56E0B50E56E0A50EB
:100B5000E56E0950E56E0450E56E0350E56E25EC38
:100B600010F0036EF3CF04F0F4CF09F0E9CF0AF0F0
:100B70000C0EE12607C0E9FF08C0EAFF03C0EEFF44
:100B800004C0EEFF09C0EEFF0AC0EFFF02EC14F054
:100B900005C0E9FF06C0EAFFEECF05F0EECF06F094
:100BA000EECF03F0EFCF04F004013F51E56E3E516C
:100BB000E56E3D51E56E3C51E56E0450E56E035027
:100BC000E56E0650E56E0550E56E45EC09F0036EE6
:100BD000F3CF04F0F4CF05F0E9CF06F0080EE126DC
:100BE0000650E56E0550E56E0450E56E0350E56E67
:100BF000410EE56E200EE56E000EE56AE56A45ECF5
:100C000009F0036EF3CF04F0F4CF05F0E9CF06F05E
:100C1000080EE12607C0E9FF08C0EAFFEECF07F0A3
:100C2000EECF08F0EECF09F0EFCF0AF00401475104
:100C3000E56E4651E56E4551E56E4451E56E0A504C
:100C4000E56E0950E56E0850E56E0750E56E45EC1F
:100C500009F0076EF3CF08F0F4CF09F0E9CF0AF0FE
:100C6000080EE1260A50E56E0950E56E0850E56E63
:100C70000750E56E410EE56E200EE56E000EE56A4A
:100C8000E56A45EC09F0076EF3CF08F0F4CF09F000
:100C9000E9CF0AF0080EE1260A50E56E0950E56E2C
:100CA0000850E56E0750E56E0650E56E0550E56E9E
:100CB0000450E56E0350E56E7FEC07F0036EF3CF52
:100CC00004F0F4CF05F0E9CF06F0080EE1260401A8
:100CD0003B51E56E3A51E56EB4EC21F0076EF3CF6F
:100CE00008F0F4CF09F0E9CF0AF0E652E6520A50D4
:100CF000E56E0950E56E0850E56E0750E56E06504A
:100D0000E56E0550E56E0450E56E0350E56E7FEC30
:100D100007F0036EF3CF04F0F4CF05F0E9CF06F04F
:100D2000080EE12601C0E9FF02C0EAFF03C0EEFFA2
:100D300004C0EEFF05C0EEFF06C0EFFF02EC14F0AA
:100D400001C0E9FF02C0EAFFEECF03F0EECF04F0EE
:100D5000EECF05F0EFCF06F0E56AE56AE56AE56AF1
:100D60000650E56E0550E56E0450E56E0350E56EE5
:100D70009AEC17F0036E080EE126035008E001C05C
:100D8000E9FF02C0EAFFEE6AEE6AEE6AEF6A01C0AE
:100D9000E9FF02C0EAFFEECF03F0EECF04F0EECFA2
:100DA00005F0EFCF06F00650E56E0550E56E0450F5
:100DB000E56E0350E56E440EE56E7F0EE56EC00EE7
:100DC000E56E000EE56A9AEC17F0036E080EE12658
:100DD00003500BE001C0E9FF02C0EAFFEE6AC00E5B
:100DE000EE6E7F0EEE6E440EEF6E02EC14F001C05C
:100DF000E9FF02C0EAFFEECF01F0EECF02F0EECF46
:100E000003F0EFCF04F0440EE56E800EE56EE56A68
:100E1000E56A0450E56E0350E56E0250E56E015040
:100E2000E56E07EC0BF0016EF3CF02F0F4CF03F0A8
:100E3000E9CF04F0080EE12602EC14F00450E56E50
:100E40000350E56E0250E56E0150E56E430EE56E0F
:100E50007F0EE56E000EE56AE56A45EC09F0016E6D
:100E6000F3CF02F0F4CF03F0E9CF04F0080EE1264F
:100E700002EC14F0056A1E0E0026D8B0052A0450B4
:100E8000E56E0350E56E0250E56E0150E56EC0EC74
:100E90001FF0016E040EE1260150E56E0550E56E6F
:100EA0000050E56E3FEC23F0030EE126E4CF12F094
:100EB000E4CF11F0E4CF10F0E4CF0FF0E4CF0EF068
:100EC000E4CF0DF0E4CF0CF0E4CF0BF0E4CF0AF068
:100ED000E4CF09F0E4CF08F0E4CF07F0E4CF06F068
:100EE000E4CF05F0E4CF04F0E4CF03F0E4CF02F068
:100EF000E4CF01F0E4CF00F0E4CFD9FF1200D9CF66
:100F0000E5FFE1CFD9FF00C0E5FF01C0E5FF02C06A
:100F1000E5FF03C0E5FF04C0E5FF05C0E5FF06C02F
:100F2000E5FF07C0E5FF08C0E5FF09C0E5FF0AC00F
:100F3000E5FF0BC0E5FF0CC0E5FF0DC0E5FF0EC0EF
:100F4000E5FF0FC0E5FF10C0E5FF020EDBCF00F0AC
:100F5000030EDBCF01F0040EDBCF02F0050EDBCF7A
:100F600003F0060EDBCF04F0070EDBCF05F0080E12
:100F7000DBCF06F0090EDBCF07F0086A096A0A6AC0
:100F80000B6A00500401856F0150866F0250876F15
:100F90000350886F045004018A6F05508B6F065010
:100FA0008C6F07508D6F0401855186118711881150
:100FB00009E18DC4E9FF8CC4F4FF8BC4F3FF040185
:100FC0008A513ED104018A518B118C118D1109E196
:100FD00088C4E9FF87C4F4FF86C4F3FF0401855188
:100FE0002FD1040187358835006E016A0136026A07
:100FF000036A016A04018C358D35026E190F046E87
:10100000000E0320800FF36E0150800FF35C02E1AD
:101010000050045C09E288C4E9FF87C4F4FF86C479
:10102000F3FF040185510CD10050190F046E000E1E
:101030000120800FF36E0350800FF35C02E1025039
:10104000045C09E28DC4E9FF8CC4F4FF8BC4F3FF98
:1010500004018A51F5D004018551046E8651056E54
:101060007F0E8715066E076A068E04018A510C6E84
:101070008B510D6E7F0E8C150E6E0F6A0E8E040155
:101080008851800BE844106E10500AE0071E061EBF
:10109000051E046C05E1052A03E1062AD8B4072AD7
:1010A00004018D51800BE844106E10500AE00F1EB1
:1010B0000E1E0D1E0C6C05E10D2A03E10E2AD8B49C
:1010C0000F2A0350800FF36E0150800FF35C02E192
:1010D0000050025C1BE20250005C106E035001588D
:1010E000105032E00BE6E86CD8900FBED8800F327B
:1010F0000E320D320C32010FF8E326D0D8900C36A8
:101100000D360E360F36010FFAE31ED00050025C8A
:10111000106E01500358105013E00BE6E86CD890A5
:1011200007BED8800732063205320432010FF8E3D9
:1011300007D0D8900436053606360736010FFAE395
:1011400002C000F003C001F00C5004260D5005222F
:101150000E5006220F500722D88007AED89010E319
:10116000071E061E051E046C05E1052A03E1062A7A
:10117000D8B4072A086A096A0A6A800E0B6E0AD078
:10118000045005100610071005E1E96AF46AF36AD5
:10119000E86A56D00450026E0550036E06500C6E7D
:1011A00007500D6E000E0D5C08E1800E0C5C05E131
:1011B000000E035C02E1000E025C09E2045004260A
:1011C000053606360736FF0E00260122E3D7075004
:1011D00010E004A006D0020E0426000E052206220E
:1011E000072207340732063205320432004A012A48
:1011F000EED7069EE86A013000300F6E0E6A0E329E
:101200000C6A0C50081209120E500A120F500B12E1
:10121000045008120550091206500A1207500B120A
:1012200008500401856F0950866F0A50876F0B5074
:10123000886F88C4E9FF87C4F4FF86C4F3FF855133
:10124000E4CF10F0E4CF0FF0E4CF0EF0E4CF0DF0D8
:10125000E4CF0CF0E4CF0BF0E4CF0AF0E4CF09F0D8
:10126000E4CF08F0E4CF07F0E4CF06F0E4CF05F0D8
:10127000E4CF04F0E4CF03F0E4CF02F0E4CF01F0D8
:10128000E4CF00F0E4CFD9FF1200D9CFE5FFE1CFE2
:10129000D9FF00C0E5FF01C0E5FF02C0E5FF03C0C4
:1012A000E5FF04C0E5FF05C0E5FF06C0E5FF07C098
:1012B000E5FF08C0E5FF09C0E5FF0AC0E5FF0BC078
:1012C000E5FF0CC0E5FF0EC0E5FF0FC0E5FF020E15
:1012D000DBCF00F0030EDBCF01F0040EDBCF02F01A
:1012E000050EDBCF03F0060EDBCF04F0070EDBCFDD
:1012F00005F0080EDBCF06F0090EDBCF07F000503B
:1013000004018E6F01508F6F0250906F0350916FE8
:1013100004500F01236F0550246F0650256F0750AE
:10132000266F04018E518F119011911106E00F016B
:10133000235124112511261105E1E96AF46AF36AA3
:10134000E86A44D104019151800BE844006E0F011A
:101350002651800BE844001A040190359135016E46
:10136000026A820E0126D8A002060F012535263515
:10137000046A01C005F002C006F00524016E0450A5
:101380000620026E04018E51036E8F51046E7F0E93
:101390009015056E058E03508E6F04508F6F0550AB
:1013A000906F916B0F012351036E2451046E7F0ED9
:1013B0002515056E058E0350236F0450246F0550CC
:1013C000256F266B04018F51036E9051046E91516D
:1013D000056E0F012451076E2551086E2651E56AEE
:1013E000E56E0850E56E0750E56EE56A0550E56E5E
:1013F0000450E56E0350E56E1BEC0FF0036EF3CF67
:1014000004F0F4CF05F0E9CF06F0080EE126040160
:101410008E51076E0F0124510B6E25510C6E265113
:10142000E56AE56E0C50E56E0B50E56EE56AE56A1F
:10143000E56A0750E56E1BEC0FF0F3CF08F0F4CF30
:1014400009F0E9CF0AF0080EE1260850076E0950AE
:10145000086E0A50096E0A6A0750032608500422D3
:10146000095005220A5006220F012351076E04017C
:101470008F510B6E90510C6E9151E56AE56E0C50D8
:10148000E56E0B50E56EE56AE56AE56A0750E56EC4
:101490001BEC0FF0F3CF08F0F4CF09F0E9CF0AF01E
:1014A000080EE1260850076E0950086E0A50096EB2
:1014B0000A6A0750032608500422095005220A50E0
:1014C0000622400E0326000E04220522062206AE46
:1014D0000ED0400E0326000E0422052206220450E0
:1014E000036E0550046E0650056E066A11D0033473
:1014F0000434036E046A04360550E844FE0B0412FB
:1015000005340634056E066A0636FF0E01260222F1
:10151000059E0250800F7F0F02E1000E015C19E36F
:10152000005006E0076A086A096A800E0A6E04D055
:10153000076A086A096A0A6A098E7F0E0A1207504A
:1015400004018E6F08508F6F0950906F0A50916F91
:1015500035D0D88002AED89006E304018E6B8F6B35
:10156000906B916B2BD0005006E0006A076A086A06
:10157000800E096E04D0006A076A086A096AE86A80
:10158000023001300F6E0E6A0E320C6A0C500012DF
:1015900007120E5008120F50091200500312075084
:1015A00004120850051209500612035004018E6FF0
:1015B00004508F6F0550906F0650916F91C4E9FFF2
:1015C00090C4F4FF8FC4F3FF04018E51E4CF0FF0F9
:1015D000E4CF0EF0E4CF0CF0E4CF0BF0E4CF0AF050
:1015E000E4CF09F0E4CF08F0E4CF07F0E4CF06F051
:1015F000E4CF05F0E4CF04F0E4CF03F0E4CF02F051
:10160000E4CF01F0E4CF00F0E4CFD9FF1200D9CF4E
:10161000E5FFE1CFD9FF00C0E5FF01C0E5FF02C053
:10162000E5FF03C0E5FF04C0E5FF05C0E5FF06C018
:10163000E5FF07C0E5FF08C0E5FF09C0E5FF0AC0F8
:10164000E5FF0BC0E5FF0CC0E5FF0DC0E5FF0EC0D8
:10165000E5FF0FC0E5FF10C0E5FF11C0E5FF12C0B8
:10166000E5FF13C0E5FF14C0E5FF15C0E5FF16C098
:10167000E5FF020EDBCF00F0030EDBCF01F0040E1E
:10168000DBCF02F0050EDBCF03F0060EDBCF04F05C
:10169000070EDBCF05F0080EDBCF06F0090EDBCF1F
:1016A00007F0005004016F6F0150706F0250716FAE
:1016B0000350726F04500401736F0550746F06502D
:1016C000756F0750766F04017151026E7251036E8F
:1016D00002340334006E016A0136026A036A016A49
:1016E00004017551046E7651056E0434053400C052
:1016F00004F0056A045C006E03500558016E7E0E0E
:101700000026D8B0012A04017251800BE844026E11
:1017100004017651800BE844021A7351741175115B
:1017200076110EE1736B746BC00E756F7F0E766F62
:1017300076C4E9FF75C4F4FF74C4F3FF7351E7D0B6
:1017400004016F5170117111721105E1E96AF46AB7
:10175000F36AE86ADCD004016F51036E7051046EC5
:101760007F0E7115056E066A058E04017351076EB2
:101770007451086E7F0E7515096E0A6A098E06503F
:10178000800FF36E0A50800FF35C08E10950055C8E
:1017900005E10850045C02E10750035C08E20350D5
:1017A0000326043605360636FF0E002601220B6A94
:1017B0000C6A0D6A010E0E6E0F6A106A116A126AC7
:1017C0000B500C100D100E1037E00650800FF36E0A
:1017D0000A50800FF35C08E10950055C05E10850F0
:1017E000045C02E10750035C1CE30F50136E1050C1
:1017F000146E1150156E1250166E0B5013100F6EA2
:101800000C501410106E0D501510116E0E50161055
:10181000126E0750035E0850045A0950055A0A50C8
:10182000065A03500326043605360636D8900E3283
:101830000D320C320B32C4D70F2A04E3102A02E314
:10184000114A122A004A012A12341232113210327D
:101850000F32119E0150800F7F0F02E1000E005CDD
:1018600019E3025006E0036A046A056A800E066EF8
:1018700004D0036A046A056A066A058E7F0E0612A2
:10188000035004016F6F0450706F0550716F065064
:10189000726F35D0D88001AED89006E304016F6B2B
:1018A000706B716B726B2BD0025006E0026A036A98
:1018B000046A800E056E04D0026A036A046A056A2F
:1018C000E86A013000300B6E0A6A0A32086A085072
:1018D000021203120A5004120B5005120F5002128A
:1018E000105003121150041212500512025004013C
:1018F0006F6F0350706F0450716F0550726F72C438
:10190000E9FF71C4F4FF70C4F3FF04016F51E4CF29
:1019100016F0E4CF15F0E4CF14F0E4CF13F0E4CFE9
:1019200012F0E4CF11F0E4CF10F0E4CF0FF0E4CFE9
:101930000EF0E4CF0DF0E4CF0CF0E4CF0BF0E4CFE9
:101940000AF0E4CF09F0E4CF08F0E4CF07F0E4CFE9
:1019500006F0E4CF05F0E4CF04F0E4CF03F0E4CFE9
:1019600002F0E4CF01F0E4CF00F0E4CFD9FF1200A1
:1019700000C0E5FF01C0E5FF02C0E5FF03C0E5FFD1
:1019800015EC23F0006E1E0E005CD8A02AD1250EA7
:10199000005CD8B026D1E20E0026FA6AFB6A003459
:1019A000FA36E834FA36FC0BB80FE56E190EFA2257
:1019B000000EFB22E450F96EEAEF0CF000EF0DF0A0
:1019C00005EF0DF012EF0DF04AEF0DF082EF0DF084
:1019D000BAEF0DF015EC23F0036E026A15EC23F05C
:1019E000016A02260150032215EC23F0E56E035034
:1019F000E56E0250E56E3FEC23F0030EE126F1D0D8
:101A000015EC23F00401396FECD015EC23F0040140
:101A10003B6F3A6B15EC23F0016A04013A27015041
:101A20003B23DFD015EC23F00401A16FA06B15EC74
:101A300023F0016A0401A0270150A123A151E56E02
:101A4000A051E56EB4EC21F0006EF3CF01F0F4CFBD
:101A500002F0E9CF03F0E652E6520350E56E025081
:101A6000E56E0150E56E0050E56E380EE56ED10E64
:101A7000E56EB70EE56E170EE56E45EC09F0040154
:101A80003C6FF3CF3DF4F4CF3EF4E9CF3FF4080EC2
:101A9000E126A7D015EC23F00401A16FA06B15EC93
:101AA00023F0016A0401A0270150A123A151E56E92
:101AB000A051E56EB4EC21F0006EF3CF01F0F4CF4D
:101AC00002F0E9CF03F0E652E6520350E56E025011
:101AD000E56E0150E56E0050E56E380EE56ED10EF4
:101AE000E56EB70EE56E170EE56E45EC09F00401E4
:101AF000406FF3CF41F4F4CF42F4E9CF43F4080E42
:101B0000E1266FD015EC23F00401A16FA06B15EC5A
:101B100023F0016A0401A0270150A123A151E56E21
:101B2000A051E56EB4EC21F0006EF3CF01F0F4CFDC
:101B300002F0E9CF03F0E652E6520350E56E0250A0
:101B4000E56E0150E56E0050E56E380EE56ED10E83
:101B5000E56EB70EE56E170EE56E45EC09F0040173
:101B6000446FF3CF45F4F4CF46F4E9CF47F4080EC1
:101B7000E12637D015EC23F00401A16FA06B15EC22
:101B800023F0016A0401A0270150A123A151E56EB1
:101B9000A051E56EB4EC21F0006EF3CF01F0F4CF6C
:101BA00002F0E9CF03F0E652E6520350E56E025030
:101BB000E56E0150E56E0050E56E380EE56ED10E13
:101BC000E56EB70EE56E170EE56E45EC09F0040103
:101BD000486FF3CF49F4F4CF4AF4E9CF4BF4080E41
:101BE000E126E4CF03F0E4CF02F0E4CF01F0E4CF4C
:101BF00000F0120000C0E5FF01C0E5FF02C0E5FFF4
:101C000003C0E5FF04015151D8B40CD19DA81DD0EB
:101C10009EA81BD00401B0510401AD1905E128ECC8
:101C200026F00401AD6BFED0000E0401B025006E5D
:101C3000016A040E012200C0E9FF01C0EAFFEFCFF4
:101C4000A9F4B02BA9C4ADFFEDD09DAAEBD09EAAFC
:101C5000E9D0ABA205D00401AE8128EC26F0E2D099
:101C6000ABA405D00401AE8328EC26F0DBD0ABA0FA
:101C700048D0AECFA9F452C400F0016A008EA9C4C6
:101C800002F0036A0250001803E10350011801E05A
:101C900004D00401AE89AB96C5D00401A95104E07B
:101CA000A9510401521929E10401AE99AB9604012E
:101CB000A95103E00401AE9702D00401AE87A9C484
:101CC000B2F4ABC4B3F40401AB51006E00040401E0
:101CD000B46F600E0401B325006E016A000E01228C
:101CE00000C0E9FF01C0EAFFA9C4EFFFB32BB35165
:101CF000800A02E10401B36B95D00401AE99AB8672
:101D000091D0AECFA9F40401AEA921D052C400F005
:101D1000016A008EA9C402F0036A0250001803E1B0
:101D20000350011801E011D09D9AAB9894900401E2
:101D3000AD5104E1AD6A28EC26F007D000C4ADFF38
:101D4000010E0401B06F9D886DD0AB866BD004018D
:101D5000A9510401B2270401B3510401B4191BE1D4
:101D60000401B2510CE1B3C4ABF40401AEB712D01C
:101D70009D9AAB989490AD6A28EC26F00BD00401A4
:101D8000AE85AEB707D09D9AAB989490010EAD6E1C
:101D900028EC26F047D00401B3510401AC1908E146
:101DA0000401AC510401AB1903E028EC26F03AD051
:101DB000ABC400F0016A004A012AE56A800EE56EB4
:101DC0000150E56E0050E56EB9EC1BF0006E040E9C
:101DD000E12600500401AA6F0401B3190FE1A9C460
:101DE00000F01F0E00140401B46F006E020E0024F8
:101DF000B46F0401AB510401B427B49FB3C400F025
:101E00000401B32B016A600E0026000E012200C0FF
:101E1000E9FF01C0EAFFA9C4EFFFB351800A02E164
:101E20000401B36BE4CF03F0E4CF02F0E4CF01F0A0
:101E3000E4CF00F01200D9CFE5FFE1CFD9FF00C019
:101E4000E5FF01C0E5FF02C0E5FF03C0E5FF04C0F8
:101E5000E5FF05C0E5FF06C0E5FF07C0E5FF020E90
:101E6000DBCF00F0030EDBCF01F0040EDBCF02F07E
:101E7000050EDBCF03F0060EDBCF04F0070EDBCF41
:101E800005F0080EDBCF06F0090EDBCF07F000509F
:101E90000F01276F0150286F0250296F03502A6FDE
:101EA00004500F012B6F05502C6F06502D6F0750FB
:101EB0002E6F0F0127510F012D03F4CF01F0F3CF47
:101EC00000F000500F01316F0150326F0F012751A8
:101ED0000F012B03F4CF01F0F3CF00F000500F01FE
:101EE0002F6F0150306F0F012A510F012B03F3CFD9
:101EF00000F00F01325100260050326F0F012951BE
:101F00000F012C03F3CF01F00150002600500F0108
:101F1000326F0F0129510F012B03F4CF01F0F3CFE2
:101F200000F00F0131510026325101220050316F73
:101F30000150326F0F0128510F012C03F4CF03F031
:101F4000F3CF02F0025000260350012200500F018F
:101F5000316F0150326F0F0128510F012D03F3CF64
:101F600000F000500F01366F0F0128510F012B03B5
:101F7000F4CF01F0F3CF00F000500F01346F0150A7
:101F8000356F0F0127510F012E03F3CF00F00050E2
:101F900004015E6F0F0127510F012C03F4CF01F0F4
:101FA000F3CF00F0005004015C6F01505D6F0F0132
:101FB000336B04015B6B0F0133510F012F25006E52
:101FC0000F0134510F013021016E0F0135510F0106
:101FD0003121026E0F0136510F013221036E005084
:101FE0002F6F0150306F0250316F0350326F040178
:101FF0005B510F012F25006E04015C510F01302150
:10200000016E04015D510F013121026E04015E5128
:102010000F013221036E03C0E9FF02C0F4FF01C0CB
:10202000F3FF0050E4CF07F0E4CF06F0E4CF05F073
:10203000E4CF04F0E4CF03F0E4CF02F0E4CF01F00A
:10204000E4CF00F0E4CFD9FF1200D9CFE5FFE1CF14
:10205000D9FF00C0E5FF01C0E5FF02C0E5FF03C0F6
:10206000E5FF04C0E5FF05C0E5FF06C0E5FF07C0CA
:10207000E5FF08C0E5FF09C0E5FF0AC0E5FF0BC0AA
:10208000E5FF0CC0E5FF0DC0E5FF0EC0E5FF0FC08A
:10209000E5FF020EDBCF00F0030EDBCF01F0040EF4
:1020A000DBCF02F0050EDBCF03F0060EDBCF04F032
:1020B000070EDBCF05F0080EDBCF06F0090EDBCFF5
:1020C00007F00A0EDBCF08F00B0EDBCF09F00C0E89
:1020D000DBCF0AF00D0EDBCF0BF00B50E56E0A5094
:1020E000E56E0950E56E0850E56E3F0EE56E800E18
:1020F000E56E000EE56AE56A58EC13F00C6EF3CF5E
:102100000DF0F4CF0EF0E9CF0FF0080EE1260F50DE
:10211000E56E0E50E56E0D50E56E0C50E56E075005
:10212000E56E0650E56E0550E56E0450E56E45EC33
:1021300009F0046EF3CF05F0F4CF06F0E9CF07F015
:10214000080EE1260B50E56E0A50E56E0950E56E6B
:102150000850E56E0350E56E0250E56E0150E56EE5
:102160000050E56E45EC09F0006EF3CF01F0F4CFBE
:1021700002F0E9CF03F0080EE1260350E56E0250AD
:10218000E56E0150E56E0050E56E0750E56E0650B5
:10219000E56E0550E56E0450E56E7FEC07F0006ECD
:1021A000F3CF01F0F4CF02F0E9CF03F0080EE126FF
:1021B00003C0E9FF02C0F4FF01C0F3FF0050E4CF09
:1021C0000FF0E4CF0EF0E4CF0DF0E4CF0CF0E4CF4D
:1021D0000BF0E4CF0AF0E4CF09F0E4CF08F0E4CF4D
:1021E00007F0E4CF06F0E4CF05F0E4CF04F0E4CF4D
:1021F00003F0E4CF02F0E4CF01F0E4CF00F0E4CF4D
:10220000D9FF1200D9CFE5FFE1CFD9FF00C0E5FF2C
:1022100001C0E5FF02C0E5FF03C0E5FF04C0E5FF24
:1022200005C0E5FF06C0E5FF07C0E5FF08C0E5FF04
:1022300009C0E5FF0AC0E5FF0BC0E5FF0CC0E5FFE4
:102240000DC0E5FF0EC0E5FF0FC0E5FF020EDBCFBE
:1022500000F0030EDBCF01F0040EDBCF02F0050E21
:10226000DBCF03F0060EDBCF04F0070EDBCF05F06B
:10227000080EDBCF06F0200E076E086A06C009F0D4
:102280000A6A0B6A0C6AE56AE56AE56A0950E56E56
:102290000350E56E0250E56E0150E56E0050E56EAC
:1022A000ABEC14F00D6E080EE126300E0D263A0E42
:1022B0000D5C05E30D500E6E270E0E240D6EFF0E05
:1022C00007260822E00E07240E6E000E08200F6E6F
:1022D0000EC0E9FF0FC0EAFF0DC0EFFF0C50E56E26
:1022E0000B50E56E0A50E56E0950E56E0350E56E41
:1022F0000250E56E0150E56E0050E56E0AEC17F0F5
:10230000006EF3CF01F0F4CF02F0E9CF03F0080E36
:10231000E1260050011002100310D8A4AFD707C067
:1023200000F008C001F004C002F005C003F000C0D6
:1023300004F001C005F0004A012AE00E0426000E58
:10234000052204C0E9FF05C0EAFFEFCF04F002C098
:10235000E9FF03C0EAFF04C0EFFF024A032A000EB0
:10236000015C02E1200E005CE2E302C0E9FF03C071
:10237000EAFF000EEF6AE4CF0FF0E4CF0EF0E4CFF7
:102380000DF0E4CF0CF0E4CF0BF0E4CF0AF0E4CF93
:1023900009F0E4CF08F0E4CF07F0E4CF06F0E4CF93
:1023A00005F0E4CF04F0E4CF03F0E4CF02F0E4CF93
:1023B00001F0E4CF00F0E4CFD9FF120000C0E5FF48
:1023C00001C0E5FF02C0E5FF03C0E5FF04C0E5FF73
:1023D00005C0E5FF06C0E5FF07C0E5FFE0EC15F02E
:1023E00002EC14F0EBEC22F0006EF3CF01F0F4CF2E
:1023F00002F0E9CF03F004013051005E3151015A7F
:102400003251025A3351035A039E3F0E035C08E1D6
:10241000FF0E025C05E1FF0E015C02E1FF0E005CB5
:10242000D8B07AD0EBEC22F0F3CF01F0F4CF02F089
:10243000E9CF03F0880F0401306F130E0120316FD4
:10244000000E0220326F000E0320336F0401395159
:1024500012E0006A016A0050E56E0EEC04F0E652EC
:1024600002EC14F0004A012A0150800F800F02E1B3
:10247000060E005CF0E37FC400F004017F2B150E14
:10248000005CD8A049D07F6B82A202D08B9201D091
:102490008B82420E5AEC22F01E0E5AEC22F0006A99
:1024A000016A026A036A000E0224046E050E03200C
:1024B000056E04C0E9FF05C0EAFFEECF04F0EECFE1
:1024C00005F0EECF06F0EFCF07F00750E56E0650AF
:1024D000E56E0550E56E0450E56E27EC1EF0046EC7
:1024E000F3CF05F0040EE12605505AEC22F004501B
:1024F0005AEC22F002EC14F0140E0226D8B0032A93
:10250000004A012A0150800F800F02E1060E005C94
:10251000CAE30A0E5AEC22F0E4CF07F0E4CF06F04B
:10252000E4CF05F0E4CF04F0E4CF03F0E4CF02F011
:10253000E4CF01F0E4CF00F01200D9CFE5FFE1CF06
:10254000D9FF00C0E5FF01C0E5FF02C0E5FF03C001
:10255000E5FF04C0E5FF05C0E5FF06C0E5FF07C0D5
:10256000E5FF08C0E5FF09C0E5FF0AC0E5FF0BC0B5
:10257000E5FF020EDBCF00F0030EDBCF01F0040E0F
:10258000DBCF02F0050EDBCF03F00050011002108C
:10259000031005E1E96AF46AF36AE86A6ED0960E00
:1025A000046E056A035008E0D8900332023201320B
:1025B0000032044A052AF6D704C006F005C007F029
:1025C000000E035C08E1800E025C05E1000E015C78
:1025D00002E1000E005C18E20050002601360236CF
:1025E0000336FF0E04260522000E035C08E1800E70
:1025F000025C05E1000E015C02E1000E005CECE310
:1026000004C006F005C007F00050046E0150056ECE
:102610007F0E0214086E096A0450FF0A08E1055093
:10262000FF0A05E108507F0A02E1095001E006D0E7
:10263000006A016A026A036A064A072A029EE86A79
:10264000073006300B6E0A6A0A32086A0850001218
:1026500001120A5002120B50031200500401776F4E
:102660000150786F0250796F03507A6F7AC4E9FF96
:1026700079C4F4FF78C4F3FF7751E4CF0BF0E4CFD3
:102680000AF0E4CF09F0E4CF08F0E4CF07F0E4CF9C
:1026900006F0E4CF05F0E4CF04F0E4CF03F0E4CF9C
:1026A00002F0E4CF01F0E4CF00F0E4CFD9FF120054
:1026B000D9CFE5FFE1CFD9FF00C0E5FF01C0E5FFBD
:1026C00002C0E5FF03C0E5FF04C0E5FF05C0E5FF6C
:1026D00006C0E5FF07C0E5FF020EDBCF00F0030EEA
:1026E000DBCF01F0040EDBCF02F0050EDBCF03F0F1
:1026F000060EDBCF04F0070EDBCF05F0080EDBCFB4
:1027000006F0090EDBCF07F0005004015F6F0150A7
:10271000606F0250616F0350626F04500401636F79
:102720000550646F0650656F0750666F6351641102
:102730006511661109E162C4E9FF61C4F4FF60C478
:10274000F3FF04015F514BD004015F51601161112F
:10275000621111E163C400F064C401F065C402F0C9
:1027600066C403F0037E03C0E9FF02C0F4FF01C0AA
:10277000F3FF005034D004016351006E6451016EC8
:102780006551026E800E6619036E0050636F015032
:10279000646F0250656F0350666FE56E6551E56EBC
:1027A0006451E56E6351E56E04016251E56E61515D
:1027B000E56E6051E56E5F51E56E7FEC07F0006EEF
:1027C000F3CF01F0F4CF02F0E9CF03F0080EE126D9
:1027D00003C0E9FF02C0F4FF01C0F3FF0050E4CFE3
:1027E00007F0E4CF06F0E4CF05F0E4CF04F0E4CF47
:1027F00003F0E4CF02F0E4CF01F0E4CF00F0E4CF47
:10280000D9FF120000C0E5FF01C0E5FF02C0E5FFEF
:1028100003C0E5FF04C0E5FF05C0E5FF06C0E5FF16
:1028200007C0E5FF72A286D0A4A884D00401545149
:10283000FD0A03E15551FF0A01E009D096EC26F0AC
:10284000736AFE0E0401546FFF0E556973D00401C4
:102850005451FE0A03E15551FF0A01E00DD0EBECA3
:1028600022F0F3CF01F00401A46F0150A56FFF0E19
:102870000401546955695ED004015451FF0A03E113
:102880005551FF0A01E02CD0EBEC22F0006EF3CFA3
:1028900001F0F4CF02F0E9CF03F0A4C404F0A5C422
:1028A00005F0E86A0401A5BFFF0E066E076E04502E
:1028B000005E0550015A0650025A0750035A039E03
:1028C000000E035C08E1000E025C05E1000E015CF5
:1028D00002E1090E005C2EE30401546B556B2AD013
:1028E00004015451551108E19AEC26F0736A010E67
:1028F0000401546F556B1ED054C400F055C401F050
:102900000401543F01D0552B000E0026020E012277
:1029100000C0E9FF01C0EAFFEFCF73FF040154518B
:1029200003E15551010A01E005D0FD0E0401546F89
:10293000FF0E5569E4CF07F0E4CF06F0E4CF05F0D1
:10294000E4CF04F0E4CF03F0E4CF02F0E4CF01F0F1
:10295000E4CF00F01200D9CFE5FFE1CFD9FF00C0EE
:10296000E5FF01C0E5FF02C0E5FF03C0E5FF04C0CD
:10297000E5FF05C0E5FF06C0E5FF07C0E5FF08C0AD
:10298000E5FF09C0E5FF0AC0E5FF020EDBCF00F05E
:10299000030EDBCF01F0040EDBCF02F0050EDBCF20
:1029A00003F0060EDBCF04F0070EDBCF05F0080EB8
:1029B000DBCF06F0090EDBCF07F0086A04500510E4
:1029C0000610071005E1E968F468F368E86847D085
:1029D000096A0750800BE8440A6E0A501BE1045054
:1029E00004260536063607360750035C08E1065014
:1029F000025C05E10550015C02E10450005C06E266
:102A0000D890073206320532043204D0092A09C0B0
:102A100008F0DFD70750035C08E10650025C05E1CF
:102A20000550015C02E10450005C08E30450005EC4
:102A30000550015A0650025A0750035AD8900732DF
:102A400006320532043208C009F008060950E2E1F6
:102A500003C0E9FF02C0F4FF01C0F3FF0050E4CF60
:102A60000AF0E4CF09F0E4CF08F0E4CF07F0E4CFB8
:102A700006F0E4CF05F0E4CF04F0E4CF03F0E4CFB8
:102A800002F0E4CF01F0E4CF00F0E4CFD9FF120070
:102A9000D9CFE5FFE1CFD9FF00C0E5FF01C0E5FFD9
:102AA00002C0E5FF03C0E5FF04C0E5FF05C0E5FF88
:102AB00006C0E5FF07C0E5FF020EDBCF00F0030E06
:102AC000DBCF01F0040EDBCF02F0050EDBCF03F00D
:102AD000005001100210031005E1E96AF46AF36A7C
:102AE000E86A5BD0E56AE56AE56AE56A0350E56E87
:102AF0000250E56E0150E56E0050E56E9AEC17F05D
:102B0000046E080EE12604502EE000C004F001C05F
:102B100005F002C006F003C007F0077E0750E56E1F
:102B20000650E56E0550E56E0450E56ECDEC1AF0EA
:102B3000046EF3CF05F0F4CF06F0E9CF07F0040EF2
:102B4000E126071E061E051E046C05E1052A03E1A9
:102B5000062AD8B4072A07C0E9FF06C0F4FF05C05B
:102B6000F3FF04501AD00350E56E0250E56E015099
:102B7000E56E0050E56ECDEC1AF0006EF3CF01F07B
:102B8000F4CF02F0E9CF03F0040EE12603C0E9FF21
:102B900002C0F4FF01C0F3FF0050E4CF07F0E4CF20
:102BA00006F0E4CF05F0E4CF04F0E4CF03F0E4CF87
:102BB00002F0E4CF01F0E4CF00F0E4CFD9FF12003F
:102BC00000C0E5FF01C0E5FF02C0E5FF03C0E5FF6F
:102BD00004C0E5FF0401AC510401AB1901E167D069
:102BE000ACC400F00050016E0128006E009E600E23
:102BF0000024016E026A000E022201C0E9FF02C039
:102C0000EAFFEFCFB6F41F0E0401B617ACC4B5F45B
:102C1000B6510401B527B551016E020E0124B56FFE
:102C2000B59F15EC23F0016E015003E1016A012A02
:102C300001D0016A15EC23F00401B66FB6C402F0AE
:102C4000800E0216B6C403F01F0E031603C004F074
:102C500003C0B6F4045003E1ABC4ACF43BD0015064
:102C60001EE0025022E015EC23F0006E0401B65184
:102C7000016E0104B66F0050420A17E000504E0A80
:102C800003E105EC20F011D00050460A03E15CECB2
:102C900026F00BD00050490A08E1FF0006D0ACC472
:102CA000B7F40250D8B4B8EC0CF0B5C4ACF40401DD
:102CB0004E5104014F1906E00401AD5103E175ECDA
:102CC00016F008D094B006D00401AD5103E1ACB2C7
:102CD00028EC26F0E4CF04F0E4CF03F0E4CF02F0D8
:102CE000E4CF01F0E4CF00F0120000C0E5FF01C026
:102CF000E5FF02C0E5FF03C0E5FF04C0E5FFACA2AD
:102D00007ED047EC24F0006E005005E104014F6BCB
:102D100004014E6B74D04FC401F00050012647EC03
:102D200024F0026E0050036E0304006E0250230A6A
:102D30001FE1010E005CD8A060D047EC24F0026EC9
:102D4000690A03E18BEC22F058D00250720A03E1C9
:102D500028EC26F052D00250730A01E04ED0948045
:102D6000AB869D8A9D98AE50AE50AB98AB8845D04F
:102D70000250430A05E00250420A01E03ED006D06C
:102D800000C003F0046A038E0350006E00C0AFF46D
:102D900000500401006F010E0401B06F04014F5197
:102DA000011814E047EC24F0026E0401AF27000E76
:102DB0000401B025006E036A040E032200C0E9FF7F
:102DC00003C0EAFF02C0EFFFB02BE8D7000E0401FA
:102DD000B025006E026A040E02220401AF1D036ECC
:102DE000032A00C0E9FF02C0EAFF03C0EFFF0401AD
:102DF000B02BB0C4ADF40401A76B01C04FF4E4CF15
:102E000004F0E4CF03F0E4CF02F0E4CF01F0E4CF2C
:102E100000F01200D9CFE5FFE1CFD9FF00C0E5FFF8
:102E200001C0E5FF02C0E5FF03C0E5FF04C0E5FF08
:102E300005C0E5FF06C0E5FF07C0E5FF08C0E5FFE8
:102E400009C0E5FF0AC0E5FF0BC0E5FF0CC0E5FFC8
:102E50000DC0E5FF020EDBCF00F0030EDBCF01F06B
:102E6000040EDBCF02F0050EDBCF03F0060EDBCF46
:102E700004F0070EDBCF05F0080EDBCF06F0090EDD
:102E8000DBCF07F0086A096A0A6A0B6A200E0C6E2B
:102E90000350800BE8440D6E0050002601360236C8
:102EA00003360850082609360A360B360D50D8A4CA
:102EB000088007500B5C08E106500A5C05E10550EC
:102EC000095C02E10450085C09E30450085E055007
:102ED000095A06500A5A07500B5A00800C040D6E0E
:102EE0000DC00CF00D50D4E103C0E9FF02C0F4FFA7
:102EF00001C0F3FF0050E4CF0DF0E4CF0CF0E4CFBD
:102F00000BF0E4CF0AF0E4CF09F0E4CF08F0E4CF0F
:102F100007F0E4CF06F0E4CF05F0E4CF04F0E4CF0F
:102F200003F0E4CF02F0E4CF01F0E4CF00F0E4CF0F
:102F3000D9FF1200D9CFE5FFE1CFD9FF00C0E5FFEF
:102F400001C0E5FF02C0E5FF03C0E5FF04C0E5FFE7
:102F500005C0E5FF06C0E5FF07C0E5FF020EDBCFB9
:102F600000F0030EDBCF01F0040EDBCF02F0050E04
:102F7000DBCF03F0060EDBCF04F0070EDBCF05F04E
:102F8000080EDBCF06F0090EDBCF07F0005004017E
:102F9000676F0150686F0250696F03506A6F045089
:102FA00004016B6F05506C6F06506D6F07506E6FAC
:102FB000D88004016AAFD8901FE3D88004016EAFB7
:102FC000D8901AE36E51800FF36E04016A51800F9E
:102FD000F35C0DE1695104016D5D09E10401685183
:102FE00004016C5D04E10401675104016B5D02E2C0
:102FF000010E1CD0E86A1AD004016A51800FF36EEA
:1030000004016E51800FF35C0DE16D510401695DA7
:1030100009E104016C510401685D04E104016B5194
:103020000401675D02E2010E01D0E86AE4CF07F017
:10303000E4CF06F0E4CF05F0E4CF04F0E4CF03F0F2
:10304000E4CF02F0E4CF01F0E4CF00F0E4CFD9FF09
:10305000120000C0E5FF01C0E5FF03C0E5FF04C0AA
:10306000E5FF05C0E5FF06C0E5FF07C0E5FF08C0B6
:10307000E5FF09C0E5FF0AC0E5FF0BC0E5FFA2C4FC
:1030800000F0A3C401F00401A23F01D0A32B005023
:10309000E56E1AEC26F0E652076E046A056A066AC7
:1030A000A2C400F0A3C401F00401A23F01D0A32BED
:1030B0000050E56E1AEC26F0E6520B6A0A6E086ABA
:1030C0000850041205120A5006120B500712A2C42F
:1030D00000F0A3C401F00401A23F01D0A32B0050D3
:1030E000E56E1AEC26F0E652036E006A03C001F0AA
:1030F000E86A03BEFF0E086E096E0050041201500C
:1031000005120850061209500712A2C400F0A3C409
:1031100001F00401A23F01D0A32B0050E56E1AEC90
:1031200026F0E652016A0412015005120612071237
:1031300007C0E9FF06C0F4FF05C0F3FF0450E4CF69
:103140000BF0E4CF0AF0E4CF09F0E4CF08F0E4CFCD
:1031500007F0E4CF06F0E4CF05F0E4CF04F0E4CFCD
:1031600003F0E4CF01F0E4CF00F01200D9CFE5FF87
:10317000E1CFD9FF00C0E5FF01C0E5FF02C0E5FFD8
:1031800003C0E5FF04C0E5FF05C0E5FF06C0E5FF9D
:1031900007C0E5FF020EDBCF00F0030EDBCF01F02E
:1031A000040EDBCF02F0050EDBCF03F003C004F00A
:1031B000056A0350D8B454D000C0E9FF01C0F3FF42
:1031C0000250FAEC25F0066E430A08E1010E056E86
:1031D00003C006F0076A068E0650036E0406002A36
:1031E00002E3014A022A9D9AAB9894909D989EA86A
:1031F000FED7AC80AD6A00009EA8FED7AC9003C09D
:10320000ADFF00009EA8FED7055004E0420EAD6E53
:10321000032604D0620EAD6E620E0326045015E044
:1032200000009EA8FED700C0E9FF01C0F3FF0250D6
:10323000FAEC25F0056E05C0ADFF05500326040627
:10324000002A02E3014A022AE9D700009EA8FED71D
:10325000031CAD6EAD2A00009EA8FED728EC26F018
:10326000E4CF07F0E4CF06F0E4CF05F0E4CF04F0BC
:10327000E4CF03F0E4CF02F0E4CF01F0E4CF00F0BC
:10328000E4CFD9FF1200D9CFE5FFE1CFD9FF00C0CD
:10329000E5FF01C0E5FF02C0E5FF03C0E5FF04C094
:1032A000E5FF05C0E5FF06C0E5FF07C0E5FF020E2C
:1032B000DBCF00F0030EDBCF01F0040EDBCF02F01A
:1032C000050EDBCF03F002C006F00650046E800A44
:1032D00033E100C0E9FF01C0F3FF0250A1EC24F08C
:1032E000056EF3CF06F0F4CF07F003C0E5FF05C08D
:1032F000E9FF06C0F3FF075067EC26F000C0E9FFC6
:1033000001C0F3FF0250A1EC24F0056EF3CF06F0EC
:10331000F4CF07F0052A02E3064A072A05C0E5FFB5
:1033200006C0F4FF07C0F6FF00C0E9FF01C0F3FFCD
:1033300002500BEC26F020D004C000F000AA1CD0F4
:10334000007A0050046E04E103509EEC26F014D085
:103350000450010A04E1035002EC00F00DD00450C7
:103360000F0A04E103505AEC22F006D004500E0A72
:1033700003E10350AEEC26F0E4CF07F0E4CF06F013
:10338000E4CF05F0E4CF04F0E4CF03F0E4CF02F0A3
:10339000E4CF01F0E4CF00F0E4CFD9FF1200D9CFA1
:1033A000E5FFE1CFD9FF00C0E5FF01C0E5FF02C0A6
:1033B000E5FF03C0E5FF04C0E5FF05C0E5FF06C06B
:1033C000E5FF07C0E5FF020EDBCF00F0030EDBCF09
:1033D00001F0040EDBCF02F0050EDBCF03F04FC48B
:1033E00050F404014E510401505F5051046E040426
:1033F000506F03C004F0056A030E0426D8B0052AF6
:1034000050C406F0076A0750800FF36E0550800F16
:10341000F35C02E10450065C02E2E86830D0020E80
:10342000035C02E2E86A2BD00350046E0404036ECE
:10343000E56E03EC21F0E652046A0350045C14E2EA
:1034400004500024056EE86A0120066EE86A022036
:1034500005C0E9FF06C0F3FFFAEC25F0042AE56E8B
:1034600003EC21F0E652E9D74FC450F404014E5169
:103470000401505F5051006E0004506FE86AE4CFC1
:1034800007F0E4CF06F0E4CF05F0E4CF04F0E4CF9A
:1034900003F0E4CF02F0E4CF01F0E4CF00F0E4CF9A
:1034A000D9FF1200D9CFE5FFE1CFD9FF00C0E5FF7A
:1034B00001C0E5FF02C0E5FF03C0E5FF04C0E5FF72
:1034C00005C0E5FF06C0E5FF07C0E5FF020EDBCF44
:1034D00000F0030EDBCF01F0040EDBCF02F0050E8F
:1034E000DBCF03F0D88003AED8902AE3031C076E2D
:1034F000021C066E011C056E001C046E042A04E109
:10350000052A02E1064A072A0750E56E0650E56ED5
:103510000550E56E0450E56E9DEC12F0046EF3CF9D
:1035200005F0F4CF06F0E9CF07F0040EE126077EA0
:1035300007C0E9FF06C0F4FF05C0F3FF04501AD02E
:103540000350E56E0250E56E0150E56E0050E56EE9
:103550009DEC12F0006EF3CF01F0F4CF02F0E9CF52
:1035600003F0040EE12603C0E9FF02C0F4FF01C02E
:10357000F3FF0050E4CF07F0E4CF06F0E4CF05F00E
:10358000E4CF04F0E4CF03F0E4CF02F0E4CF01F0A5
:10359000E4CF00F0E4CFD9FF1200D9CFE5FFE1CFAF
:1035A000D9FF00C0E5FF01C0E5FF02C0E5FF03C091
:1035B000E5FF04C0E5FF05C0E5FF020EDBCF00F02C
:1035C000030EDBCF01F0040EDBCF02F0050EDBCFE4
:1035D00003F0005004017B6F01507C6F02507D6F3F
:1035E00003507E6F7B517C117D117E1106E07E5170
:1035F000800BE844006E005005E0E96AF46AF36A63
:10360000E86A35D004017B517D51026E7E51036E14
:1036100002340334006E016A6A0E0026D8A0010647
:103620007B51026E7C51036E7F0E7D15046E056A20
:10363000048E011E006CD8B4012A005011E009E686
:10364000E86CD8900532043203320232010FFAE3FB
:1036500007D0D8900236033604360536010FFAE358
:1036600005C0E9FF04C0F4FF03C0F3FF0250E4CF3C
:1036700005F0E4CF04F0E4CF03F0E4CF02F0E4CFB0
:1036800001F0E4CF00F0E4CFD9FF1200D9CFE5FF7D
:10369000E1CFD9FF00C0E5FF01C0E5FF02C0E5FFB3
:1036A00003C0E5FF04C0E5FF05C0E5FF06C0E5FF78
:1036B000020EDBCF00F0030EDBCF01F0040EDBCFF8
:1036C00002F000C0E9FF01C0F3FF025027EC24F034
:1036D000036EF3CF04F0F4CF05F0E9CF06F0065007
:1036E000E56E0550E56E0450E56E0350E56E410E43
:1036F000E56EC60EE56E4E0EE56E6D0EE56E1BECCC
:103700000FF0036EF3CF04F0F4CF05F0E9CF06F02D
:10371000080EE126390E0326300E0422000E052283
:10372000062203C0E5FF04C0F4FF05C0F6FF06C093
:10373000F7FF00C0E9FF01C0F3FF0250E9EC25F0FC
:10374000069E06C0E9FF05C0F4FF04C0F3FF035066
:10375000E4CF06F0E4CF05F0E4CF04F0E4CF03F0CB
:10376000E4CF02F0E4CF01F0E4CF00F0E4CFD9FFE2
:103770001200D9CFE5FFE1CFD9FF00C0E5FF01C0BE
:10378000E5FF02C0E5FF03C0E5FF04C0E5FF05C09B
:10379000E5FF06C0E5FF020EDBCF00F0030EDBCF36
:1037A00001F0040EDBCF02F0050EDBCF03F0D88072
:1037B00001AED890046A0436045007E0011C066E7E
:1037C000001C056E054A062A04D000C005F001C0A1
:1037D00006F0D88003AED89007E3031C016E021CEC
:1037E000006E004A012A04D002C000F003C001F0BC
:1037F0000150E56E0050E56E0650E56E0550E56E31
:10380000CAEC1DF0006EF3CF01F0040EE126045067
:103810000AE0011C036E001C026E024A032A03C068
:10382000F3FF025003D001C0F3FF0050E4CF06F0D5
:10383000E4CF05F0E4CF04F0E4CF03F0E4CF02F0EE
:10384000E4CF01F0E4CF00F0E4CFD9FF1200D9CFEC
:10385000E5FFE1CFD9FF00C0E5FF01C0E5FF02C0F1
:10386000E5FF03C0E5FF04C0E5FF05C0E5FF06C0B6
:10387000E5FF020EDBCF00F0030EDBCF01F0040EFC
:10388000DBCF02F000C0E9FF01C0F3FF025027ECDC
:1038900024F00401936FF3CF94F4F4CF95F4E9CFBF
:1038A00096F4800EE56E040EE56E930EE56E46EC22
:1038B0001BF0036EF3CF04F0F4CF05F0E9CF06F070
:1038C000030EE12603C0E5FF04C0F4FF05C0F6FFC8
:1038D00006C0F7FF00C0E9FF01C0F3FF0250E9ECAA
:1038E00025F000C0E9FF01C0F3FF025027EC24F0EF
:1038F000F3CF01F0F4CF02F0E9CF03F003C0E9FF0A
:1039000002C0F4FF01C0F3FFE4CF06F0E4CF05F0FE
:10391000E4CF04F0E4CF03F0E4CF02F0E4CF01F011
:10392000E4CF00F0E4CFD9FF1200D9CFE5FFE1CF1B
:10393000D9FF00C0E5FF01C0E5FF02C0E5FF03C0FD
:10394000E5FF04C0E5FF05C0E5FF020EDBCF00F098
:10395000030EDBCF01F0040EDBCF02F0050EDBCF50
:1039600003F0A2C404F0A3C405F00401A23F01D0F7
:10397000A32B0350E56E0450E56E03EC24F0E652F1
:10398000E652A2C404F0A3C405F00401A23F01D092
:10399000A32B0250056EE56E0450E56E03EC24F097
:1039A000E652E652A2C404F0A3C405F00401A23F0B
:1039B00001D0A32B0150E56E0450E56E03EC24F01A
:1039C000E652E652A2C404F0A3C405F00401A23FEB
:1039D00001D0A32B0050E56E0450E56E03EC24F0FB
:1039E000E652E652E4CF05F0E4CF04F0E4CF03F072
:1039F000E4CF02F0E4CF01F0E4CF00F0E4CFD9FF50
:103A00001200D9CFE5FFE1CFD9FF00C0E5FF01C02B
:103A1000E5FF02C0E5FF03C0E5FF04C0E5FF05C008
:103A2000E5FF06C0E5FF020EDBCF00F0030EDBCFA3
:103A300001F0040EDBCF02F00401A65119E129ECDC
:103A400018F0036EF3CF04F0F4CF05F0E9CF06F0E1
:103A500003C0E5FF04C0F4FF05C0F6FF06C0F7FF92
:103A600000C0E9FF01C0F3FF0250E9EC25F01ED0D1
:103A70000401A651010A1AE100C0E9FF01C0F3FFE9
:103A8000025027EC24F0006EF3CF01F0F4CF02F0E7
:103A9000E9CF03F00350E56E0250E56E0150E56E8C
:103AA0000050E56E95EC1CF0040EE126E4CF06F024
:103AB000E4CF05F0E4CF04F0E4CF03F0E4CF02F06C
:103AC000E4CF01F0E4CF00F0E4CFD9FF1200D9CF6A
:103AD000E5FFE1CFD9FF00C0E5FF01C0E5FF02C06F
:103AE000E5FF03C0E5FF04C0E5FF05C0E5FF06C034
:103AF000E5FF020EDBCF00F0030EDBCF01F0040E7A
:103B0000DBCF02F0050EDBCF03F0060EDBCF04F0B7
:103B1000070EDBCF05F0080EDBCF06F0D88003AE32
:103B2000D89015E306500A0A12E104C0E9FF05C067
:103B3000EAFF2D0EEF6E044A052A031E021E011E27
:103B4000006C05E1012A03E1022AD8B4032A0650D9
:103B5000E56E0550E56E0450E56E0350E56E0250CB
:103B6000E56E0150E56E0050E56E02EC11F0070EB7
:103B7000E126E4CF06F0E4CF05F0E4CF04F0E4CF93
:103B800003F0E4CF02F0E4CF01F0E4CF00F0E4CFA3
:103B9000D9FF1200D9CFE5FFE1CFD9FF00C0E5FF83
:103BA00001C0E5FF02C0E5FF03C0E5FF04C0E5FF7B
:103BB00005C0E5FF06C0E5FF020EDBCF00F0030EF7
:103BC000DBCF01F0040EDBCF02F0050EDBCF03F0FC
:103BD000046A056A0350800BE844066E065011E142
:103BE0000250022603360350015C02E10250005CE1
:103BF00004E2D8900332023204D0052A05C004F052
:103C0000E9D70350015C02E10250005C04E302507A
:103C1000005E0350015AD8900332023204C005F00E
:103C200004060550EEE101C0F3FF0050E4CF06F0BA
:103C3000E4CF05F0E4CF04F0E4CF03F0E4CF02F0EA
:103C4000E4CF01F0E4CF00F0E4CFD9FF1200D9CFE8
:103C5000E5FFE1CFD9FF00C0E5FF01C0E5FF02C0ED
:103C6000E5FF03C0E5FF020EDBCF00F0030EDBCF64
:103C700001F0040EDBCF02F0050EDBCF03F00350A2
:103C8000E56E0250E56E0150E56E0050E56E48ECC1
:103C900015F0006EF3CF01F0F4CF02F0E9CF03F09E
:103CA000040EE1260350800F800F08E1000E025C35
:103CB00005E17F0E015C02E1FF0E005C04E37F0E74
:103CC000F36EE86814D00350800F810F08E1FF0EF7
:103CD000025C05E1800E015C02E1010E005C04E281
:103CE000800EF36EE86A03D001C0F3FF0050E4CF0A
:103CF00003F0E4CF02F0E4CF01F0E4CF00F0E4CF32
:103D0000D9FF120000C0E5FF01C0E5FF02C0E5FFDA
:103D100003C0E5FFACC400F0016AB7C402F0036A57
:103D20000250005E0350015AE56A800EE56E0150B4
:103D3000E56E0050E56EB9EC1BF0006E040EE12656
:103D40000006B7C401F0430E5AEC22F0200E5AECE4
:103D500022F0005020E0600E0124026E036A000E83
:103D6000032202C0E9FF03C0EAFFEFCF02F0E56AD9
:103D70000250E56E000EE56E4C0EE56E680EE56EC7
:103D800047EC20F0050EE126012A0150800A01E1EE
:103D9000016A0006DED7E4CF03F0E4CF02F0E4CFFF
:103DA00001F0E4CF00F0120000C0E5FF01C0E5FF24
:103DB00002C0E5FF03C0E5FF91EC26F094928B92E0
:103DC000BCEC22F0EBEC22F0F3CF01F0F4CF02F0E8
:103DD000E9CF03F0880F0401306F130E0120316F1B
:103DE000000E0220326F000E0320336F68EC23F0C8
:103DF000006EF3CF01F0F4CF02F0E9CF03F00350EF
:103E0000E56E0250E56E0150E56E0050E56E52EC35
:103E10001AF0006EF3CF01F0F4CF02F0E9CF03F017
:103E2000040EE12600500501006F0150016F0250A1
:103E3000026F0350036FE4CF03F0E4CF02F0E4CF4E
:103E400001F0E4CF00F01200D9CFE5FFE1CFD9FFB8
:103E500000C0E5FF01C0E5FF02C0E5FF03C0E5FFCC
:103E600004C0E5FF020EDBCF00F0030EDBCF01F054
:103E7000040EDBCF02F00401A65111E126EC22F082
:103E8000036EF3CF04F003C0E5FF04C0F4FF00C0ED
:103E9000E9FF01C0F3FF025044EC26F016D0040104
:103EA000A651010A12E100C0E9FF01C0F3FF025070
:103EB00060EC25F0006EF3CF01F00150E56E00508C
:103EC000E56EC6EC20F0E652E652E4CF04F0E4CF13
:103ED00003F0E4CF02F0E4CF01F0E4CF00F0E4CF50
:103EE000D9FF1200140EF66E4D0EF76E000EF86E2E
:103EF0000900F550056E0900F550066E04E10567EE
:103F000002D0BFEF1FF00900F550006E0900F55018
:103F1000016E0900F550026E09000900F550E96EC6
:103F20000900F550EA6E090009000900F550036E1A
:103F30000900F550046E09000900F6CF07F0F7CF2D
:103F400008F0F8CF09F000C0F6FF01C0F7FF02C08B
:103F5000F8FF035002E1045007E00900F550EE6E4F
:103F60000306F8E20406F9D707C0F6FF08C0F7FF1A
:103F700009C0F8FF050601E206067EEF1FF01200F9
:103F8000D9CFE5FFE1CFD9FF00C0E5FF01C0E5FFD4
:103F900002C0E5FF03C0E5FF020EDBCF00F0030E19
:103FA000DBCF01F0040EDBCF02F0050EDBCF03F018
:103FB0000350E56E0250E56E0150E56E0050E56E6F
:103FC000CDEC1AF0006EF3CF01F0F4CF02F0E9CFA0
:103FD00003F0040EE126000E035C08E1000E025C13
:103FE00005E1000E015C02E1FF0E005C02E3E868FF
:103FF00001D00050E4CF03F0E4CF02F0E4CF01F0B1
:10400000E4CF00F0E4CFD9FF120000C0E5FF01C00B
:10401000E5FF02C0E5FF15EC23F0006E15EC23F080
:10402000016E0050026ED00E0224006E0A0E005C7B
:1040300005E30050026EF90E0224006E0150026E7C
:10404000D00E0224016E0A0E015C05E30150026EDF
:10405000F90E0224016E080E005C12E2100E015CE3
:10406000D8B00ED00038F00B0124006E7AEC21F0AD
:10407000016E015005E10050E56ED6EC24F0E652E9
:10408000E4CF02F0E4CF01F0E4CF00F01200D9CF8A
:10409000E5FFE1CFD9FF00C0E5FF01C0E5FF02C0A9
:1040A000E5FF020ED924006E000EDA20016E800EAC
:1040B000026E030E0026000E012202220250E56E5F
:1040C0000150E56E0050E56E040EDBCFE5FF030EF8
:1040D000DBCFE5FF020EDBCFE5FF04019951E56E72
:1040E0009851E56E9751E56E0EEC00F0006EF3CF3F
:1040F00001F0090EE12601C0F3FF0050E4CF02F009
:10410000E4CF01F0E4CF00F0E4CFD9FF1200D9CF23
:10411000E5FFE1CFD9FF00C0E5FF01C0E5FF02C028
:10412000E5FF03C0E5FF020EDBCF00F0030EDBCF9F
:1041300001F0040EDBCF02F00401A6510DE134ECD6
:1041400025F0036E03C0E5FF00C0E9FF01C0F3FFE7
:10415000025067EC26F00FD00401A651010A0BE1D2
:1041600000C0E9FF01C0F3FF0250FAEC25F0E56E54
:10417000B8EC23F0E652E4CF03F0E4CF02F0E4CF52
:1041800001F0E4CF00F0E4CFD9FF1200D9CFE5FF72
:10419000E1CFD9FF00C0E5FF01C0E5FF02C0E5FFA8
:1041A00003C0E5FF020EDBCF00F0030EDBCF01F012
:1041B000A2C402F0A3C403F00401A23F01D0A32BC8
:1041C0000150E56E0250E56E03EC24F0E652E65233
:1041D000A2C402F0A3C403F00401A23F01D0A32BA8
:1041E0000050E56E0250E56E03EC24F0E652E65214
:1041F000E4CF03F0E4CF02F0E4CF01F0E4CF00F02D
:10420000E4CFD9FF1200D9CFE5FFE1CFD9FF00C03D
:10421000E5FF01C0E5FF02C0E5FF03C0E5FF04C004
:10422000E5FF020EDBCF00F04EC401F0026A014A46
:10423000022A4FC403F0046A0150031803E102503C
:10424000041801E001D00ED0000E04014E25016ECD
:10425000026A010E022201C0E9FF02C0EAFF00C0AB
:10426000EFFF4E2BE4CF04F0E4CF03F0E4CF02F0F5
:10427000E4CF01F0E4CF00F0E4CFD9FF1200D9CFB2
:10428000E5FFE1CFD9FF00C0E5FF01C0E5FF02C0B7
:10429000E5FF03C0E5FF020EDBCF00F0016AB7C403
:1042A00002F0036A0250002603500122E56A800EE4
:1042B000E56E0150E56E0050E56EB9EC1BF0006E46
:1042C000F3CF01F0040EE126600E0026000E01225D
:1042D00000C0E9FF01C0EAFFEFCF00F00050E4CFDB
:1042E00003F0E4CF02F0E4CF01F0E4CF00F0E4CF3C
:1042F000D9FF120000C0E5FF01C0E5FF02C0E5FFE5
:10430000010E006E15EC23F0016E01C002F00150A9
:1043100023E00050E56E1AEC26F0016EE6520150E3
:1043200010E10A0E005C0BE20A0E006EE56E1AEC5C
:1043300026F0016EE652015004E1E8680ED0E8680C
:104340000CD00150021802E0E86807D0002A1B0ECA
:10435000005CD8E3E86801D0E86AE4CF02F0E4CF7B
:1043600001F0E4CF00F01200D9CFE5FFE1CFD9FF93
:1043700000C0E5FF01C0E5FF02C0E5FF03C0E5FFA7
:10438000020EDBCF00F0030EDBCF01F0E86A01BEC6
:10439000FF0E026EE56E0250E56E0150E56E0050B4
:1043A000E56E52EC1AF0006EF3CF01F0F4CF02F09C
:1043B000E9CF03F0040EE12603C0E9FF02C0F4FFD9
:1043C00001C0F3FF0050E4CF03F0E4CF02F0E4CFEC
:1043D00001F0E4CF00F0E4CFD9FF1200F3CFE5FF06
:1043E000F4CFE5FFE9CFE5FFEACFE5FFFACFE5FF40
:1043F000FBCFE5FF04014C510401366F04014D5120
:104400000401376FD650346FD750356FF2A411D0F6
:1044100004014C3F01D04D2BF29404014C51040196
:10442000366F04014D510401376FD650346FD750A9
:10443000356FE4CFFBFFE4CFFAFFE4CFEAFFE4CF30
:10444000E9FFE4CFF4FFE4CFF3FF110000C0E5FF84
:1044500001C0E5FF02C0E5FF03C0E5FFA2C400F014
:10446000A3C401F00401A23F01D0A32B0050E56ECC
:104470001AEC26F0E652036E026AA2C400F0A3C44E
:1044800001F00401A23F01D0A32B0050E56E1AEC0D
:1044900026F0E652016A02120150031203C0F3FF34
:1044A0000250E4CF03F0E4CF02F0E4CF01F0E4CF18
:1044B00000F0120000C0E5FF01C0E5FF02C0E5FF0B
:1044C000006E000E04015325016E026A0F0E0222D7
:1044D00001C0E9FF02C0EAFF00C0EFFF220E535DFA
:1044E00001E2532B00500A0A0FE104015351E56E1B
:1044F000800EE56E0F0EE56E000EE56ECFEC19F046
:10450000040EE1260401536BE4CF02F0E4CF01F086
:10451000E4CF00F0120004014E6B04014F6B040164
:10452000506994808B909480B06A3F0EAF6EB886CD
:10453000AC8AAC84AC8CAC90AB8CAB8E0401AE6B13
:104540000401A86B0401AB6B0401AC6B0401AD6BFF
:10455000000EE56A1AEC26F00401526FE6529F98AD
:104560009F9A010E0401516F0401976B986B2F0EF7
:10457000996F28EC26F0120000C0E5FF01C0E5FFAE
:1045800002C0E5FF03C0E5FF006A016A000E0024D7
:10459000026E020E0120036E02C0E9FF03C0EAFFB3
:1045A000EF6A004A012A0150800F7F0F02E1000EDE
:1045B000005CECE38A8C939C7086728A7284728CA5
:1045C0007280718EE4CF03F0E4CF02F0E4CF01F00B
:1045D000E4CF00F0120004014C510401836F040188
:1045E0004D510401846FD650816FD750826F835133
:1045F00004014C1905E10401845104014D190CE03A
:1046000004014C510401836F04014D510401846F76
:10461000D650816FD750826F84C4E9FF83C4F4FF02
:1046200082C4F3FF04018151120000C0E5FF01C004
:10463000E5FF0401AC510401B51905E00401AC51DA
:104640000401AB1902E1E86A15D0ACC400F0040122
:10465000AC2B016A600E0026000E012200C0E9FFAB
:1046600001C0EAFFEFCF00F0AC51800A02E1040183
:10467000AC6B0050E4CF01F0E4CF00F01200D9CFD2
:10468000E5FFE1CFD9FF00C0E5FF01C0E5FF02C0B3
:10469000E5FF020EDBCF00F0030EDBCF01F0040ECE
:1046A000DBCF02F0005001100AE0000E0026020EDF
:1046B000012200C0E9FF01C0EAFF02C0EFFFE4CF22
:1046C00002F0E4CF01F0E4CF00F0E4CFD9FF120014
:1046D00000C0E5FF01C0E5FF02C0E5FF03C0E5FF44
:1046E000800EE56E040EE56E570EE56E46EC1BF08F
:1046F000006EF3CF01F0F4CF02F0E9CF03F0030E28
:10470000E12603C0E9FF02C0F4FF01C0F3FF00503F
:10471000E4CF03F0E4CF02F0E4CF01F0E4CF00F007
:10472000120000C0E5FFA2EC26F00401896B806B4B
:104730008983006A89B3002A0050010BE844F46EB3
:104740008051FD0BF410806FD58ED59CD59AD588FD
:10475000D596D594D582D580F28AF184D08EF28E0A
:10476000F28CBA80FF0EBB68BA84E4CF00F012006E
:10477000D9CFE5FFE1CFD9FF00C0E5FF01C0E5FFDC
:1047800002C0E5FF020EDBCF00F0A2C401F0A3C41B
:1047900002F00401A23F01D0A32B0050E56E0150AE
:1047A000E56E03EC24F0E652E652E4CF02F0E4CFEB
:1047B00001F0E4CF00F0E4CFD9FF1200D8CFE5FF3D
:1047C000E0CFE5FFE56EF3CFE5FFF4CFE5FFE9CFFE
:1047D000E5FFEACFE5FFFACFE5FFFBCFE5FFFAEC17
:1047E0000DF0E4CFFBFFE4CFFAFFE4CFEAFFE4CF24
:1047F000E9FFE4CFF4FFE4CFF3FFE450E4CFE0FFC0
:10480000E4CFD8FF1000D9CFE5FFE1CFD9FF00C03A
:10481000E5FF020EDBCF00F0030EDBCFA8FF00C0E8
:10482000A9FFA69EA69CA684F29EF29C550EA76E9A
:10483000AA0EA76EA682A6A202D00000FCD7A6945C
:10484000F28EF28CE4CF00F0E4CFD9FF1200E8AE94
:104850000AD0F3CFEAFFEE50EECFF3FFEECFF4FF36
:10486000EECFE9FF1200E8BCB5EF26F0E9CFF6FF86
:10487000F3CFF7FFF86E0900F5500900F5CFF3FF0D
:104880000900F5CFF4FF0900F5CFE9FF120000C0E1
:10489000E5FF01C0E5FF04014E5104014F1902E19B
:1048A000E86A0FD0000E04014F25006E016A010E68
:1048B000012200C0E9FF01C0EAFFEFCF00F04F2B5B
:1048C0000050E4CF01F0E4CF00F01200F2CFEAFF95
:1048D000F29EA69EA69CA684E9CFA9FFF3CFAAFFCD
:1048E000E4CFA8FF72EC26F0F4CFA8FF72EC26F01C
:1048F000F6CFA8FF72EC26F0F7CFA8FF72EC26F0F7
:10490000A694EABEF28E1200F2CFF6FFF29EA69EA9
:10491000A69CE9CFA9FFF3CFAAFFA680A850A94A79
:10492000AA2AA680A8CFF3FFA94AAA2AA680A8CFC0
:10493000F4FFA94AAA2AA680A8CFEAFFF6BEF28E03
:104940001200E8AE08D0F3CFEAFFEE50EECFF3FF4F
:10495000EECFF4FF1200E8BCBDEF26F0E9CFF6FF82
:10496000F3CFF7FFF86E0900F5500900F5CFF3FF1C
:104970000900F5CFF4FF1200F2CFEAFFF29EA69EE7
:10498000A69CA684E9CFA9FFF3CFAAFFE4CFA8FF96
:1049900072EC26F0F4CFA8FF72EC26F0F6CFA8FF59
:1049A00072EC26F0A694EABEF28E1200D9CFE5FF93
:1049B000E1CFD9FF00C0E5FF020EDBCF00F000C061
:1049C00052F40050E56E000EE56A03EC24F0E65266
:1049D000E652E4CF00F0E4CFD9FF1200F2CFF6FFA9
:1049E000F29EA69EA69CE9CFA9FFF3CFAAFFA680C0
:1049F000A850A94AAA2AA680A8CFF3FFA94AAA2AA2
:104A0000A680A8CFF4FFF6BEF28E120000C0E5FF2C
:104A100001C0E5FF600E0401AC25006E016A000EC6
:104A2000012200C0E9FF01C0EAFFEFCF00F0005013
:104A3000E4CF01F0E4CF00F01200D9CFE5FFE1CFE1
:104A4000D9FF00C0E5FF020EDBCF00F0610E005C75
:104A500005E37B0E005C02E2010E01D0E86AE4CFC0
:104A600000F0E4CFD9FF120000C0E5FF01C0E5FF70
:104A7000A2C400F0A3C401F00401A23F01D0A32B03
:104A80000050E56E1AEC26F0E652E4CF01F0E4CFD8
:104A900000F01200D9CFE5FFE1CFD9FF00C0E5FF5C
:104AA000020EDBCF00F000C051F4005004E128EC0E
:104AB00026F09D9A9D98E4CF00F0E4CFD9FF120034
:104AC000E8AE06D0F3CFEAFFEE50EECFF3FF1200D0
:104AD000E8BCB3EF26F0E9CFF6FFF3CFF7FFF86EAF
:104AE0000900F5500900F5CFF3FF1200F2CFEAFFFD
:104AF000F29EA69EA69CA684E9CFA9FFF3CFAAFFAB
:104B0000E4CFA8FF72EC26F0F4CFA8FF72EC26F0F9
:104B1000A694EABEF28E120013EEFFF023EEFFF031
:104B2000F86AA68EA69CE9680E0EEA6E0068000E72
:104B3000ED6A0050FDE172EC1FF006EC00F0FFD7CB
:104B4000D9CFE5FFE1CFD9FF020EDBCF57F4030E3B
:104B5000DBCF58F4040EDBCF59F4050EDBCF5AF44B
:104B6000E4CFD9FF1200F2CFF6FFF29EA69EA69CDC
:104B7000E9CFA9FFF3CFAAFFA680A850A94AAA2A85
:104B8000A680A8CFF3FFF6BEF28E1200F2CFEAFFA6
:104B9000F29EA69EA69CA684E9CFA9FFF3CFAAFF0A
:104BA000E4CFA8FF72EC26F0A694EABEF28E1200C3
:104BB0000176020000004052499D3ACDCC4C3D0A9E
:104BC000D7233C00000000FF000000FDFF000100B3
:104BD0000000E8AE0BD0F3CFEAFFE4CFEEFFF4CF56
:104BE000EEFFF6CFEEFFF7CFEEFF1200E8BCB7EF17
:104BF00026F01200E8AE04D0F3CFEAFFEE50120028
:104C0000E8BCB1EF26F0E9CFF6FFF3CFF7FFF86E7F
:104C10000900F5501200E8AE09D0F3CFEAFFE4CF67
:104C2000EEFFF4CFEEFFF6CFEEFF1200E8BCBFEFD1
:104C300026F01200D9CFE5FFE1CFD9FF020EDBCF7E
:104C4000A9FFA69CA69EA680A850E4CFD9FF12007B
:104C5000ACA2FED79480AE500000AE50AB98AB88AB
:104C6000AB869D8A9D98120025642000F2CFF6FF46
:104C7000F29EA69EA69CE9CFA9FFF3CFAAFFA6802D
:104C8000A850F6BEF28E1200E8AE07D0F3CFEAFFCE
:104C9000E4CFEEFFF4CFEEFF1200E8BCBBEF26F04E
:104CA0001200700ED36E9B8CFF0E9268936894680E
:104CB0009668626AF19E120000C0E5FF7AEC21F06E
:104CC000006E005001E1FF00E4CF00F01200E8AEFA
:104CD00005D0F3CFEAFFE4CFEEFF1200E8BCB9EF56
:104CE00026F01200550EA76EAA0EA76EA682A6B2D7
:104CF000FED7A94AAA2A010E0401A66F1C0E0401C0
:104D0000A26FA36B12000401A66B1C0E0401A26F1C
:104D1000A36B12000100B04B000039040000220018
:104D2000000091EC23F08BEC22F01200766AA50EC5
:104D3000756E1200766A3F0E756E1200ACA2FED739
:104D4000AD6E120051EC26F012000401AC511200BD
:104D50000401B6511200040151511200E8CF7FFF47
:104D6000120036EF26F0B3EF25F084EF24F066EF63
:104D700024F0C6EF25F076EF25F0EEEF24F0BCEF3F
:024D800024F01D
:020000040030CA
:010006008574
:00000001FF
